S01100004D696E69436C69636B2E73726563A0
S113000070090020190B0000150B0000150B0000EF
S113001000000000000000000000000000000000DC
S1130020000000000000000000000000150B0000AC
S11300300000000000000000150B0000150B00007C
S1130040150B0000150B0000C9060000150B00007D
S1130050D1080000150B0000150B00000000000083
S1130060150B0000B1080000C108000000000000EA
S1130070000000004907000059070000150B0000AC
S11300800000000000000000150B000010B5064C35
S11300902378002B07D1054B002B02D0044800E045
S11300A000BF0123237010BD3C04002000000000A9
S11300B0C00D0000084B10B5002B03D007490848B9
S11300C000E000BF07480368002B00D110BD064BB9
S11300D0002BFBD09847F9E7000000004004002003
S11300E0C00D0000C00D0000000000000368DB69C3
S11300F09B07FBD17047000010B504490A230B800D
S1130100034B4B60034B984710BDC0465804002076
S1130110000000201F04000010B504490A230B80CE
S11301200B0008334B60024B984710BD5804002065
S1130130F703000030B58DB002AA002111708023AE
S11301409B03536001235B42138100235181D181BE
S1130150137453745161137653769376D16111629B
S11301602431535401315354013153541F23938187
S11301700D4C250014350D4928000D4B98476B464E
S1130180D871646920000B4B98471F2318401E3B0D
S11301908340094A13602800084B984723680222C9
S11301A0134323600DB030BD580400200008004202
S11301B04D0200009508000000E100E0ED000000A1
S11301C0F8B50D4C02220D490D480E4DA8473926AD
S11301D0A35D04221343DBB2A355022763699F7511
S11301E0032209490648A847A35D08221343DBB24A
S11301F0A35563699F75F8BD58040020F9000000F9
S11302006C040020DD0300001901000030B583B048
S11302100A4B984701AC002363700122A270E3707B
S11302200233237021000E20054DA84721000F2022
S1130230A847044B9847044B9847FEE7E90B000096
S1130240E50A000035010000C1010000F0B5CE460A
S1130250474680B583B005000C00160029600B6882
S11302601C209B0704D503B00CBC90469946F0BDF6
S11302700B681738DB07F6D408004D4B99469847AE
S11302804C4A116A831C0127B8469F403B000B432C
S1130290136201A9737E0B700E30C3B21F001800E5
S11302A0454B98473800454B9847707E0021444B96
S11302B098472868C84707004249434B9847BF00FE
S11302C0424BFD5000232422AB540132AB54EB8447
S11302D0337E6B72102323602C683389EB80337C6C
S11302E02B7280236A461370002353706B46424678
S11302F09A7000236A46D370F069356A00284BD09F
S11303006B46187002236A465370000CC0B26946EB
S11303102F4B9847002D44D06B461D7002236A462C
S113032053702D0CE8B26946294B9847B37E80225E
S1130330002B04D1274B9B789B07DB0FDA01252385
S1130340F35C002B04D180239B047169994202D190
S113035080231B051A432068736871690B432421A9
S1130360715C89070B432621715CC9050B43034368
S113037013432360728980235B0013436360B38952
S11303805B00F28952041343727C1343327CD20320
S113039013436362002066E7002120000E4B984758
S11303A0AEE7012120000C4B98470500B4E7C04696
S11303B03508000000040040210A000095090000EF
S11303C069070000490400005D0800003C050020A6
S11303D0E50A000000200041B507000010B5931C99
S11303E09B00C31859602424035D012191400B43F1
S11303F0DBB2035510BD028D0523002A01D018007D
S113040070474B68C3620B8803850B88C38405322D
S11304103123C254036802329A750023EFE7028D38
S11304200523002A01D0180070474B68C3620B886B
S113043003850B88C38405323123C2540368023216
S11304409A750023EFE7000070B580009B4BC458F9
S113045025682523E35C2422A65C1E402B7E9B0793
S113046000D495E0E38C9BB2228D93420DD03023CF
S1130470E35C002B09D13122A354E3842385B30721
S11304800BD523692000984707E0E38C9BB29A427E
S113049003D03023E35C012B22D06A8B43231A421E
S11304A004D01022123BE254B30624D4637A002B06
S11304B025D16B8B1B074AD501223023E2547307E5
S11304C038D4E38C9BB2002B38D125687C4B9847F9
S11304D000236B838023DB026B607A4B984718E020
S11304E000233122A354E3842385F307D5D5E3689D
S11304F020009847D1E7236A20009847D6E725686B
S11305006F4B984700236B838023DB026B606D4B3A
S1130510984723681A7ED20701D501221A7602224F
S11305201A762468664B9847002363836360654B9F
S1130530984770BD636920009847C2E72568604BFF
S1130540984700236B836B605E4B9847E1E700227A
S11305503023E25433070ED4E38C9BB2002B0ED12C
S11305602568574B984700236B838023DB026B601D
S1130570544B9847CDE7A36920009847ECE72568DA
S11305804F4B984700236B836B604E4B9847C0E7F3
S11305902B7EDB072ED501232B7604332B752033DA
S11305A0E35C5B0705D42523E35C1B0701D402232A
S11305B02B753123E35C1E2BBBD03123E35C102B62
S11305C0B7D000233122A354E3842385B30703D592
S11305D03023E35C002B09D0F307AAD53023E35C76
S11305E0012BA6D1E36820009847A2E723692000E5
S11305F098479EE72B7E5B079BD5238D002B1ED04F
S11306003022A25C012A13D0E38C9BB2002B00D1D0
S11306108FE73023E35C002B44D0E36A5A1CE26288
S11306201B78DBB22822AB54238D013B238580E762
S1130630E28C92B29342E7D26B8B5B07E4D5002342
S11306402385E3843033E35C002B17D11C4B98479C
S113065000236B838023DB026B601A4B98476A6824
S113066080239B0213436B601E223123E254F30662
S113067000D45EE7E369200098475AE7104B984797
S113068000236B838023DB026B600E4B98476A6800
S113069080239B0213436B6031230022E2542D3BE1
S11306A02B7546E7E26A531CE3622823EB5CDBB25A
S11306B01370238D013B23853BE7C0463C05002096
S11306C0250900006509000010B50122034B9A7149
S11306D0034B1B68002B00D0984710BD001000404E
S11306E03005002070B58000164BC45823689D7BEC
S11306F0227E637E13401D40EB0706D4AB070BD468
S1130700EB0610D4AB0615D470BD2000A36898473F
S1130710012322689373F1E72000E36898470223DA
S113072022689373ECE7200023699847102322681A
S11307309373E7E7200063699847236820229A733C
S1130740E2E7C0463405002010B50020014B98476D
S113075010BDC046E506000010B50120014B9847C6
S113076010BDC046E506000010B582B004000E4B73
S11307701B78002B07D0002905D10B4B5B788342F3
S113078010D01D200CE001A90C700D20074B9847D8
S11307900D20074B9847044B5C7001221A7000200F
S11307A002B010BD0020FBE7DC040020210A000099
S11307B095090000154B984204D0154B984211D06E
S11307C000207047012907D000291BD0022905D039
S11307D0032905D00020F4E70E48F2E70E48F0E7BD
S11307E00E48EEE7012907D000290DD0022905D0D3
S11307F0032905D00020E4E70948E2E70948E0E7D7
S11308000948DEE70948DCE70948DAE7000800425E
S1130810000C004203000500030008000300090067
S113082002001F0002001800020019000300040067
S113083002001E00064B984208D0064A002390424C
S113084001D0180070470133DBB2FAE70023FBE75D
S113085000080042000C00427047000030B5094B0C
S11308601B78002B0AD1084C084D2560084B002248
S11308701A6065605A600132024B1A708000024BA4
S1130880C15030BDDE040020E004002059080000FF
S11308903C05002010B582B001AC0923237001335C
S11308A06370024B9847205602B010BD3508000013
S11308B010B5024B1B680020984710BDE0040020CF
S11308C010B5024B5B680120984710BDE00400207E
S11308D070B50022104B1A70002310491F25104ECA
S11308E00D4C0AE00D4908E023780133DBB2237094
S11308F00F2B10D800211F2BF4D9280018400122F7
S1130900824008691042EFD00A619B009B59002B7A
S1130910EAD09847E8E770BD44050020001800407D
S1130920F00400200C4B1B68002B06D1EFF310835E
S1130930002B07D00022094B1A70074A13680133B1
S11309401360704772B6BFF35F8F0022044B1A70B6
S11309500132024B1A70F0E7E8040020EC04002096
S11309600A000020084B1A68013A1A601B68002B21
S113097009D1064B1B78002B05D00122044B1A70B9
S1130980BFF35F8F62B67047E8040020EC040020D8
S11309900A00002010B50400064B9847064B1C7053
S11309A0064A53888021C9010B435380044B98475E
S11309B010BDC04625090000020C0040000C004098
S11309C06509000010B504000F4B98470F4B1C70CD
S11309D00F4A53881B05180F53880E490B40538048
S11309E053880D490B40538011008022D2014B885B
S11309F01342FCD106494A880302064802401343C5
S1130A004B80064B984710BD25090000020C00409E
S1130A10000C0040FFF0FFFFFFBFFFFF650900006F
S1130A2010B50C7824020443024B9847A4B2024B3D
S1130A305C8010BDC5090000000C004030B5D378BF
S1130A40002B35D11378802B29D01B068024640217
S1130A50234354780225AC4306D19478002C20D14A
S1130A608024A402234341605478013C012C1CD906
S1130A700D042D0CA024E4052C431C4384620D0CAE
S1130A80D02424062C431C438462D478002C22D125
S1130A905B031CD59378012B1ED0416117E0002322
S1130AA0D7E7C024E4022343DDE70D4C2340DFE70E
S1130AB041600C04240CA023DB05234383620C0C4B
S1130AC0D0231B0623438362D378002B03D15378AE
S1130AD0013B012B02D930BD8161F8E78160FAE75F
S1130AE0FFFFFBFF10B50A00C1090023002904D150
S1130AF04309DB0105498C4663441F24204001213E
S1130B0081401800024B984710BDC0460044004184
S1130B103D0A0000FEE7000010B5264A264B9A4223
S1130B2011D01A00254B9A420DD2254A03339B1A41
S1130B309B0801339B0000221F481E498C58845097
S1130B4004329A42FAD11F4A1F4B9A420AD2D34323
S1130B501D495B1803218B4304339B18002102C2F7
S1130B609342FCD1194AFF21194B8B439360FD3901
S1130B7090235B00174AD150174B9A7B2E318A433E
S1130B8020210A439A739A7B0C218A4308210A4341
S1130B909A739A7B03218A4302210A439A730F4A68
S1130BA0536880210B4353600D4B98470D4B984776
S1130BB0FEE7C046C00D0000000000203C040020F9
S1130BC0040000203C0400206C05002000ED00E03F
S1130BD00000000000700041004800410040004156
S1130BE0F90B00000D020000014A024B1A60704725
S1130BF040420F000C00002070B50D4E0D4D002436
S1130C00AD1BAD1005D0A300F35801349847A5429D
S1130C10F9D100F0C3F8084E084D0024AD1BAD1007
S1130C2005D0A300F35801349847A542F9D170BD0B
S1130C30A80D0000A80D0000A80D0000B00D0000D4
S1130C40034B10B5002B02D0024800F005F810BD8C
S1130C5000000000690C000010B501000023002210
S1130C60002000F01FF810BD70B5094B094CE41AC0
S1130C70A41009D0084AA518AD00ED182B68013C52
S1130C809847043D002CF9D100F092F870BDC0469D
S1130C90BC0D0000C00D0000FFFFFF3F7047C046C1
S1130CA07047C046F0B54E464546DE465746E0B569
S1130CB0364D83B00600286898460F009146FFF72A
S1130CC0EDFF334B1C68A4235B00E058002852D08E
S1130CD043681F2B13DC5A1C0192002E28D1019A61
S1130CE002339B0042601F502868FFF7D9FF0020A1
S1130CF003B03CBC90469946A246AB46F0BD254B9A
S1130D00002B3DD0C820400000E000BF002837D0B1
S1130D10A42200235200A15843600160A050403235
S1130D20835004328350013301930023002ED6D024
S1130D309A00924682444A46882154466250C4220C
S1130D405200914681444A468739994012688B463D
S1130D500A4394464A466146116084224146520041
S1130D60A150022EBBD102005C468D32FF321168C5
S1130D700C431460B3E720004D30FF30E050A7E788
S1130D802868FFF78DFF01204042B1E738040020B6
S1130D90980D00000000000010000020F8B5C046C7
S1130DA0F8BC08BC9E467047410C0000B50000002A
S1130DB0F8B5C046F8BC08BC9E4670478D000000DC
S1130DC000010203040506070809010040420F0060
S1130DD000000000FC02002064030020CC0300207B
S1130DE000000000000000000000000000000000FF
S1130DF000000000000000000000000000000000EF
S1130E0000000000000000000000000000000000DE
S1130E1000000000000000000000000000000000CE
S1130E2000000000000000000000000000000000BE
S1130E3000000000000000000000000000000000AE
S1130E40000000000000000000000000000000009E
S1130E50000000000000000000000000000000008E
S1130E60000000000000000000000000000000007E
S1130E70000000000000000001000000000000006D
S1130E800E33CDAB34126DE6ECDE05000B00000032
S1130E90000000000000000000000000000000004E
S1130EA0000000000000000000000000000000003E
S1130EB0000000000000000000000000000000002E
S1130EC0000000000000000000000000000000001E
S10F11F000000000000000004805002082
S9030000FC
