S01200004D696E69537469636B732E7372656314
S1130000D0080020550300005103000051030000F4
S113001000000000000000000000000000000000DC
S11300200000000000000000000000005103000078
S11300300000000000000000510300005103000014
S1130040510300005103000041010000510300006E
S113005001020000510300005103000000000000F1
S113006051030000E1010000F10100000000000064
S113007000000000C1010000D10100005103000094
S113008000000000000000005103000010B5064C01
S11300902378002B07D1054B002B02D0044800E045
S11300A000BF0123237010BD3404002000000000B1
S11300B0FC050000084B10B5002B03D00749084885
S11300C000E000BF07480368002B00D110BD064BB9
S11300D0002BFBD09847F9E700000000380400200B
S11300E0FC050000FC0500000000000000B583B022
S11300F00F4B984701A901234B7000228A700B70A3
S113010004200C4B9847012309E010210A4A51614D
S113011001225340DBB2002208498A4205DD002B4C
S1130120F3D01021044A9161F2E70132F4E7C046AA
S11301302504000055020000004400419F86010090
S113014010B50122034B9A71034B1B68002B00D09E
S1130150984710BD001000409804002070B580003E
S1130160164BC45823689D7B227E637E13401D403A
S1130170EB0706D4AB070BD4EB0610D4AB0615D4AF
S113018070BD2000A3689847012322689373F1E7A8
S11301902000E3689847022322689373ECE7200069
S11301A023699847102322689373E7E72000636963
S11301B09847236820229A73E2E7C0469C040020F3
S11301C010B50020014B984710BDC0465D010000EA
S11301D010B50120014B984710BDC0465D010000D9
S11301E010B5024B1B680020984710BD5004002036
S11301F010B5024B5B680120984710BD50040020E5
S113020070B50022104B1A70002310491F25104EA0
S11302100D4C0AE00D4908E023780133DBB223706A
S11302200F2B10D800211F2BF4D9280018400122CD
S1130230824008691042EFD00A619B009B59002B51
S1130240EAD09847E8E770BDA404002000180040F5
S11302505804002000B583B001AB80221A700A78DC
S11302605A704A789A708A78DA701900014B984764
S113027003B000BD2103000030B5D378002B35D185
S11302801378802B29D01B068024640223435478DE
S11302900225AC4306D19478002C20D18024A402FA
S11302A0234341605478013C012C1CD90D042D0CCE
S11302B0A024E4052C431C4384620D0CD0242406A2
S11302C02C431C438462D478002C22D15B031CD5BC
S11302D09378012B1ED0416117E00023D7E7C02497
S11302E0E4022343DDE70D4C2340DFE741600C04C7
S11302F0240CA023DB05234383620C0CD0231B06B0
S113030023438362D378002B03D15378013B012B21
S113031002D930BD8161F8E78160FAE7FFFFFBFF96
S113032010B50A00C1090023002904D14309DB01E7
S113033005498C4663441F24204001218140180054
S1130340024B984710BDC0460044004179020000AA
S1130350FEE7000010B5264A264B9A4211D01A0037
S1130360254B9A420DD2254A03339B1A9B0801332D
S11303709B0000221F481E498C58845004329A4224
S1130380FAD11F4A1F4B9A420AD2D3431D495B1824
S113039003218B4304339B18002102C29342FCD1F6
S11303A0194AFF21194B8B439360FD3990235B005D
S11303B0174AD150174B9A7B2E318A4320210A4386
S11303C09A739A7B0C218A4308210A439A739A7B75
S11303D003218A4302210A439A730F4A53688021F6
S11303E00B4353600D4B98470D4B9847FEE7C046AF
S11303F0FC0500000000002034040020040000205C
S113040034040020CC04002000ED00E000000000D3
S113041000700041004800410040004135040000E4
S1130420ED000000014A024B1A60704740420F0081
S11304300000002070B50D4E0D4D0024AD1BAD1015
S113044005D0A300F35801349847A542F9D100F030
S1130450C3F8084E084D0024AD1BAD1005D0A30011
S1130460F35801349847A542F9D170BDE405000062
S1130470E4050000E4050000EC050000034B10B5A2
S1130480002B02D0024800F005F810BD0000000067
S1130490A504000010B5010000230022002000F094
S11304A01FF810BD70B5094B094CE41AA41009D00B
S11304B0084AA518AD00ED182B68013C9847043D87
S11304C0002CF9D100F092F870BDC046F805000088
S11304D0FC050000FFFFFF3F7047C0467047C04661
S11304E0F0B54E464546DE465746E0B5364D83B038
S11304F00600286898460F009146FFF7EDFF334B3E
S11305001C68A4235B00E058002852D043681F2BCA
S113051013DC5A1C0192002E28D1019A02339B004D
S113052042601F502868FFF7D9FF002003B03CBC8D
S113053090469946A246AB46F0BD254B002B3DD0D4
S1130540C820400000E000BF002837D0A4220023C8
S11305505200A15843600160A050403283500432DD
S11305608350013301930023002ED6D09A00924683
S113057082444A46882154466250C422520091461D
S113058081444A468739994012688B460A43944607
S11305904A4661461160842241465200A150022E0F
S11305A0BBD102005C468D32FF3211680C431460EB
S11305B0B3E720004D30FF30E050A7E72868FFF78D
S11305C08DFF01204042B1E730040020D405000033
S11305D00000000008000020F8B5C046F8BC08BCC4
S11305E09E4670477D040000B5000000F8B5C04683
S10F05F0F8BC08BC9E4670478D0000005B
S11305FC40420F000000000000000000F402002044
S113060C5C030020C4030020000000000000000074
S113061C00000000000000000000000000000000CA
S113062C00000000000000000000000000000000BA
S113063C00000000000000000000000000000000AA
S113064C000000000000000000000000000000009A
S113065C000000000000000000000000000000008A
S113066C000000000000000000000000000000007A
S113067C000000000000000000000000000000006A
S113068C000000000000000000000000000000005A
S113069C000000000000000000000000000000004A
S11306AC01000000000000000E33CDAB34126DE6E7
S11306BCECDE05000B000000000000000000000050
S11306CC000000000000000000000000000000001A
S11306DC000000000000000000000000000000000A
S11306EC00000000000000000000000000000000FA
S11306FC00000000000000000000000000000000EA
S1070A2CA8040020F6
S9030000FC
