S01100004D696E69436C69636B2E73726563A0
S1130000F8080020C1060000BD060000BD0600007F
S113001000000000000000000000000000000000DC
S1130020000000000000000000000000BD06000009
S11300300000000000000000BD060000BD06000036
S1130040BD060000BD0600001D020000BD06000044
S1130050DD020000BD060000BD0600000000000037
S1130060BD060000BD020000CD020000000000003B
S1130070000000009D020000AD020000BD0600006B
S11300800000000000000000BD06000010B5064C92
S11300902378002B07D1054B002B02D0044800E045
S11300A000BF0123237010BD3C04002000000000A9
S11300B0A40A0000084B10B5002B03D007490848D8
S11300C000E000BF07480368002B00D110BD064BB9
S11300D0002BFBD09847F9E7000000004004002003
S11300E0A40A0000A40A00000000000030B5C4B255
S11300F0E3096409002B08DD002401238340180070
S11301008A184D1C097880231BE0E4011F4B9C4690
S11301106444F2E76061C046C046C046C046C0467B
S1130120C046C046C046C046C046C046C046C0469B
S1130130C046C046C0461EE0954226D22978013505
S11301408023A061C046C046C046C046C046C046E3
S11301500B42DFD0C046C046C046C046C046C0467B
S1130160C046C046C046C046C046C046C046C0465B
S1130170C046C04660615B08DED0C046C046C0468B
S1130180C046C046C046C046DBE730BD004400411F
S113019070B586B0194B984705A80026467001250E
S11301A085700670164B9847164B9847164B984720
S11301B004AC6570A670257021000220134DA84779
S11301C021000520A847642201AB1A70012409E02C
S11301D004220F4B5A6101235C40E4B2FA208000F0
S11301E00C4B98470C2201A905200B4B9847002C77
S11301F0EED00422064B9A61EDE7C0469107000059
S1130200C504000031030000010500009D03000047
S11302100044004171030000ED00000010B501220C
S1130220034B9A71034B1B68002B00D0984710BDF9
S113023000100040C004002070B58000164BC45864
S113024023689D7B227E637E13401D40EB0706D40A
S1130250AB070BD4EB0610D4AB0615D470BD20004D
S1130260A3689847012322689373F1E72000E368A9
S11302709847022322689373ECE720002369984788
S1130280102322689373E7E7200063699847236883
S113029020229A73E2E7C046C404002010B500206F
S11302A0014B984710BDC0463902000010B501202B
S11302B0014B984710BDC0463902000010B5024BEF
S11302C01B680020984710BD5804002010B5024B4D
S11302D05B680120984710BD5804002070B50022C7
S11302E0104B1A70002310491F25104E0D4C0AE0C4
S11302F00D4908E023780133DBB223700F2B10D8AB
S113030000211F2BF4D928001840012282400869DB
S11303101042EFD00A619B009B59002BEAD098470A
S1130320E8E770BDCC0400200018004080040020E1
S113033070B50020084B98470500084CFA21890045
S1130340A047074B186007492800A047064B1860D0
S11303500522064B1A6070BD25050000A1070000A8
S11303600000002040420F000400002010E000E0E4
S113037030B5084B1C68084A002580214902013821
S113038007D3002CFBD05460956013680B42FCD05B
S1130390F5E730BD0000002010E000E000B583B0B8
S11303A001AB80221A700A785A704A789A708A7857
S11303B0DA701900014B984703B000BD8D060000A8
S11303C00C4B1B68002B06D1EFF31083002B07D0D6
S11303D00022094B1A70074A1368013313607047EF
S11303E072B6BFF35F8F0022044B1A700132024BC6
S11303F01A70F0E760040020640400200800002064
S1130400084B1A68013A1A601B68002B09D1064B85
S11304101B78002B05D00122044B1A70BFF35F8FA9
S113042062B67047600400206404002008000020C5
S113043010B5082803D880001C4B1B589F46002089
S113044032E01B4B18692FE01A4B1B6A9B059B0F6C
S11304501948D84028E0164B586925E0144B1B680E
S113046000209B0720D513491022CB681A42FCD0E8
S11304700F4B1A6824231340042B01D00F4813E0B8
S113048000200F4B98470A4B9B681B041B0C5843D6
S11304900AE05023074AD35C00205B0704D5044BD1
S11304A0D86801E08020000210BDC046580A000050
S11304B0680400200008004000127A00006CDC028E
S11304C0B105000070B50C490B6A04788578407852
S11304D00122104080014026B34303432A40D20145
S11304E08020834313430322224012020348034023
S11304F013430B6270BDC04600080040FFFCFFFFC1
S1130500064A936908210B4393610122044B1A7034
S113051019000B781342FCD17047C0460004004018
S1130520000C004070B504001A4A53785BB2002BEB
S1130530FBDB194B9847194B1C70164A53785BB276
S1130540002BFBDB134E7068C004C00E144B98479D
S11305500500124B1C707668F602F60F114B1C70E6
S11305600C4A53785BB2002BFBDB0A4B9C682402D9
S1130570240C0D4B9847002E07D1012C07D92100DC
S113058028000A4B9847050001E00134E5402800A3
S113059070BDC046000C0040C1030000040C0040C4
S11305A031040000080C004001040000A107000011
S11305B010B50400064B9847064B1C70064B5C882C
S11305C02405240F054B98472000054B984710BD80
S11305D0C1030000020C0040000C004001040000B4
S11305E02505000030B5D378002B35D11378802B46
S11305F029D01B0680246402234354780225AC438B
S113060006D19478002C20D18024A4022343416095
S11306105478013C012C1CD90D042D0CA024E405B4
S11306202C431C4384620D0CD02424062C431C430D
S11306308462D478002C22D15B031CD59378012BDF
S11306401ED0416117E00023D7E7C024E40223430E
S1130650DDE70D4C2340DFE741600C04240CA023AC
S1130660DB05234383620C0CD0231B0623438362E4
S1130670D378002B03D15378013B012B02D930BD31
S11306808161F8E78160FAE7FFFFFBFF10B50A001C
S1130690C1090023002904D14309DB0105498C4623
S11306A063441F242040012181401800024B9847D5
S11306B010BDC04600440041E5050000FEE700000F
S11306C010B5264A264B9A4211D01A00254B9A425D
S11306D00DD2254A03339B1A9B0801339B00002249
S11306E01F481E498C58845004329A42FAD11F4A3A
S11306F01F4B9A420AD2D3431D495B1803218B43F3
S113070004339B18002102C29342FCD1194AFF21F1
S1130710194B8B439360FD3990235B00174AD150EA
S1130720174B9A7B2E318A4320210A439A739A7B72
S11307300C218A4308210A439A739A7B03218A4332
S113074002210A439A730F4A536880210B43536072
S11307500D4B98470D4B9847FEE7C046A40A00008E
S1130760000000203C040020040000203C04002081
S1130770F404002000ED00E00000000000700041DF
S11307800048004100400041B90800009101000008
S1130790014A024B1A60704740420F000C000020CF
S11307A0002243088B4274D303098B425FD3030AAC
S11307B08B4244D3030B8B4228D3030C8B420DD3BF
S11307C0FF22090212BA030C8B4202D3121209024D
S11307D065D0030B8B4219D300E0090AC30B8B428B
S11307E001D3CB03C01A5241830B8B4201D38B0339
S11307F0C01A5241430B8B4201D34B03C01A5241DE
S1130800030B8B4201D30B03C01A5241C30A8B4220
S113081001D3CB02C01A5241830A8B4201D38B020B
S1130820C01A5241430A8B4201D34B02C01A5241AF
S1130830030A8B4201D30B02C01A5241CDD2C30921
S11308408B4201D3CB01C01A524183098B4201D39D
S11308508B01C01A524143098B4201D34B01C01A88
S1130860524103098B4201D30B01C01A5241C30800
S11308708B4201D3CB00C01A524183088B4201D36F
S11308808B00C01A524143088B4201D34B00C01A5B
S11308905241411A00D20146524110467047FFE7C7
S11308A001B5002000F006F802BDC0460029F7D0CB
S11308B076E770477047C04670B50D4E0D4D002465
S11308C0AD1BAD1005D0A300F35801349847A542E1
S11308D0F9D100F0D5F8084E084D0024AD1BAD1039
S11308E005D0A300F35801349847A542F9D170BD4F
S11308F08C0A00008C0A00008C0A0000940A000094
S1130900034B10B5002B02D0024800F005F810BDCF
S1130910000000002909000010B501000023002296
S1130920002000F01FF810BD70B5094B094CE41A03
S1130930A41009D0084AA518AD00ED182B68013C95
S11309409847043D002CF9D100F0A4F870BDC046CE
S1130950A00A0000A40A0000FFFFFF3F7047C04642
S11309607047C046F0B54E464546DE465746E0B5AC
S1130970364D83B00600286898460F009146FFF76D
S1130980EDFF334B1C68A4235B00E058002852D0D1
S113099043681F2B13DC5A1C0192002E28D1019AA4
S11309A002339B0042601F502868FFF7D9FF0020E4
S11309B003B03CBC90469946A246AB46F0BD254BDD
S11309C0002B3DD0C820400000E000BF002837D0F5
S11309D0A42200235200A15843600160A050403279
S11309E0835004328350013301930023002ED6D068
S11309F09A00924682444A46882154466250C42250
S1130A005200914681444A468739994012688B4680
S1130A100A4394464A466146116084224146520084
S1130A20A150022EBBD102005C468D32FF32116808
S1130A300C431460B3E720004D30FF30E050A7E7CB
S1130A402868FFF78DFF01204042B1E738040020F9
S1130A507C0A000000000000420400003E04000084
S1130A603E040000A4040000A40400005604000096
S1130A70480400005C040000920400001000002000
S1130A80F8B5C046F8BC08BC9E4670470109000092
S1130A90B5000000F8B5C046F8BC08BC9E467047D7
S1070AA08D000000C1
S1130AA4401F0000080000000100000040420F0045
S1130AB400000000FC02002064030020CC0300209A
S1130AC4000000000000000000000000000000001E
S1130AD4000000000000000000000000000000000E
S1130AE400000000000000000000000000000000FE
S1130AF400000000000000000000000000000000EE
S1130B0400000000000000000000000000000000DD
S1130B1400000000000000000000000000000000CD
S1130B2400000000000000000000000000000000BD
S1130B3400000000000000000000000000000000AD
S1130B44000000000000000000000000000000009D
S1130B54000000000000000001000000000000008C
S1130B640E33CDAB34126DE6ECDE05000B00000051
S1130B74000000000000000000000000000000006D
S1130B84000000000000000000000000000000005D
S1130B94000000000000000000000000000000004D
S1130BA4000000000000000000000000000000003D
S10F0ED40000000000000000D00400201A
S9030000FC
