S01100004D696E69436C69636B2E73726563A0
S113000070090020750C0000710C0000710C0000D8
S113001000000000000000000000000000000000DC
S1130020000000000000000000000000710C00004F
S11300300000000000000000710C0000710C0000C2
S1130040710C0000710C000001080000710C00002C
S1130050090A0000710C0000710C0000000000008F
S1130060710C0000E9090000F9090000000000001B
S1130070000000008108000091080000710C0000DD
S11300800000000000000000710C000010B5064CD8
S11300902378002B07D1054B002B02D0044800E045
S11300A000BF0123237010BD3404002000000000B1
S11300B01C0F0000084B10B5002B03D0074908485B
S11300C000E000BF07480368002B00D110BD064BB9
S11300D0002BFBD09847F9E700000000380400200B
S11300E01C0F00001C0F0000000000000368DB6907
S11300F09B07FBD17047000000B583B00A494B68E9
S11301001A786B46DA71073301220A801B780E32A3
S113011013406A46CB181B7A937106324A60034B2C
S1130120984703B000BDC0465004002057050000A6
S113013010B5044901230B800B0014334B60024BB0
S1130140984710BD500400202F05000030B58DB035
S113015002AA0021117080239B03536001235B4298
S1130160138100235181D181137453745161137627
S113017053769376D161116224315354013153542F
S113018001315354122393810D4C250018350D4928
S113019028000D4B98476B46D871A46920000B4B7F
S11301A098471F2318401E3B8340094A13602800C8
S11301B0084B984723680222134323600DB030BDD7
S11301C0500400200008004285030000CD0900000F
S11301D000E100E0ED000000F8B50D4C02220D49ED
S11301E00D480E4DA8473D26A35D04221343DBB200
S11301F0A3550227A3699F75032209490648A84706
S1130200A35D08221343DBB2A355A3699F75F8BD10
S113021050040020F90000006804002015050000C7
S113022031010000F0B583B04F4B984701AC002575
S1130230257001276770A570210010204B4EB04730
S113024021001120B04721001620B04721001720BB
S1130250B0476B465D709F70DD7002236A46137071
S113026069460E20424CA04769460F20A047414BE7
S11302709847414B9847414A136DD364404B186AE1
S1130280802149020840411E8841C0B25021505487
S1130290196A8024A40221404C1EA141C9B25032E3
S11302A0140051701A6A8025ED032A40551EAA4194
S11302B0D2B2A2701B6A80252D042B405D1EAB4177
S11302C0DBB2E370002807D14C242C4D2C5D002CAC
S11302D002D08125294C6572002907D1274C4C3462
S11302E06478002C02D08225244C6572002A07D140
S11302F0224C4C34A478002C02D083251F4C657208
S1130300002B07D11D4C4C34E478002C02D08425FA
S11303101A4C6572002807D04C20184C205C002829
S113032002D1412415484472002907D013494C31A5
S11303304978002902D1422010494872002A07D086
S11303400E4A4C329278002A02D143210B4A517250
S1130350002B90D0094B4C33DB78002B8BD14422FB
S1130360064B5A7287E7C046450D00005D0A00003F
S1130370410C00004D010000D90100005004002090
S113038000440041F0B5CE46474680B583B0050031
S11303900C00160029600B681C209B0704D503B0D1
S11303A00CBC90469946F0BD0B681738DB07F6D4B1
S11303B008004D4B994698474C4A116A831C012703
S11303C0B8469F403B000B43136201A9737E0B7038
S11303D00E30C3B21F001800454B98473800454BF8
S11303E09847707E0021444B98472868C847070007
S11303F04249434B9847BF00424BFD5000232422FF
S1130400AB540132AB54EB84337E6B721023236004
S11304102C683389EB80337C2B7280236A461370FB
S1130420002353706B4642469A7000236A46D37089
S1130430F069356A00284BD06B46187002236A466F
S11304405370000CC0B269462F4B9847002D44D01E
S11304506B461D7002236A4653702D0CE8B2694640
S1130460294B9847B37E8022002B04D1274B9B78DD
S11304709B07DB0FDA012523F35C002B04D18023D7
S11304809B047169994202D180231B051A43206899
S1130490736871690B432421715C89070B4326211E
S11304A0715CC9050B4303431343236072898023A2
S11304B05B0013436360B3895B00F2895204134306
S11304C0727C1343327CD20313436362002066E7D9
S11304D0002120000E4B9847AEE7012120000C4B71
S11304E098470500B4E7C0466D09000000040040C9
S11304F07D0B0000F10A0000A10800008105000046
S11305009509000040050020410C00000020004136
S1130510ED08000010B5931C9B00C31859602424F7
S1130520035D012191400B43DBB2035510BD028DE5
S11305300523002A01D0180070474B68C3620B885A
S113054003850B88C38405323123C2540368023205
S11305509A750023EFE7028D0523002A01D01800C5
S113056070474B68C3620B8803850B88C3840532CC
S11305703123C254036802329A750023EFE7000066
S113058070B580009B4BC45825682523E35C242266
S1130590A65C1E402B7E9B0700D495E0E38C9BB2A7
S11305A0228D93420DD03023E35C002B09D13122FC
S11305B0A354E3842385B3070BD52369200098470C
S11305C007E0E38C9BB29A4203D03023E35C012B17
S11305D022D06A8B43231A4204D01022123BE254E5
S11305E0B30624D4637A002B25D16B8B1B074AD521
S11305F001223023E254730738D4E38C9BB2002BDE
S113060038D125687C4B984700236B838023DB0219
S11306106B607A4B984718E000233122A354E3849B
S11306202385F307D5D5E36820009847D1E7236AEB
S113063020009847D6E725686F4B984700236B83C3
S11306408023DB026B606D4B984723681A7ED207C8
S113065001D501221A7602221A762468664B98473D
S1130660002363836360654B984770BD6369200012
S11306709847C2E72568604B984700236B836B60FB
S11306805E4B9847E1E700223023E25433070ED44F
S1130690E38C9BB2002B0ED12568574B984700235F
S11306A06B838023DB026B60544B9847CDE7A369CF
S11306B020009847ECE725684F4B984700236B834D
S11306C06B604E4B9847C0E72B7EDB072ED501238A
S11306D02B7604332B752033E35C5B0705D4252389
S11306E0E35C1B0701D402232B753123E35C1E2B2F
S11306F0BBD03123E35C102BB7D000233122A354A9
S1130700E3842385B30703D53023E35C002B09D0AE
S1130710F307AAD53023E35C012BA6D1E3682000BC
S11307209847A2E72369200098479EE72B7E5B0742
S11307309BD5238D002B1ED03022A25C012A13D01E
S1130740E38C9BB2002B00D18FE73023E35C002BBA
S113075044D0E36A5A1CE2621B78DBB22822AB5411
S1130760238D013B238580E7E28C92B29342E7D24A
S11307706B8B5B07E4D500232385E3843033E35C90
S1130780002B17D11C4B984700236B838023DB027B
S11307906B601A4B98476A6880239B0213436B6013
S11307A01E223123E254F30600D45EE7E3692000FD
S11307B098475AE7104B984700236B838023DB024A
S11307C06B600E4B98476A6880239B0213436B60EF
S11307D031230022E2542D3B2B7546E7E26A531C79
S11307E0E3622823EB5CDBB21370238D013B23858A
S11307F03BE7C04640050020810A0000C10A000012
S113080010B50122034B9A71034B1B68002B00D0D7
S1130810984710BD001000403405002070B58000DA
S1130820164BC45823689D7B227E637E13401D4073
S1130830EB0706D4AB070BD4EB0610D4AB0615D4E8
S113084070BD2000A3689847012322689373F1E7E1
S11308502000E3689847022322689373ECE72000A2
S113086023699847102322689373E7E7200063699C
S11308709847236820229A73E2E7C046380500208F
S113088010B50020014B984710BDC0461D0800005C
S113089010B50120014B984710BDC0461D0800004B
S11308A010B582B004000E4B1B78002B07D0002932
S11308B005D10B4B5B78834210D01D200CE001A9BD
S11308C00C700D20074B98470D20074B9847044B9D
S11308D05C7001221A70002002B010BD0020FBE7FA
S11308E0E00400207D0B0000F10A0000154B984243
S11308F004D0154B984211D000207047012907D02D
S113090000291BD0022905D0032905D00020F4E7D3
S11309100E48F2E70E48F0E70E48EEE7012907D04B
S113092000290DD0022905D0032905D00020E4E7D1
S11309300948E2E70948E0E70948DEE70948DCE757
S11309400948DAE700080042000C004203000500F1
S1130950030008000300090002001F000200180041
S1130960020019000300040002001E00064B984216
S113097008D0064A0023904201D018007047013382
S1130980DBB2FAE70023FBE700080042000C004258
S11309907047000030B5094B1B78002B0AD1084C76
S11309A0084D2560084B00221A6065605A600132C8
S11309B0024B1A708000024BC15030BDE20400208B
S11309C0E4040020910900004005002010B582B025
S11309D001AC0923237001336370024B98472056FE
S11309E002B010BD6D09000010B5024B1B68002059
S11309F0984710BDE404002010B5024B5B68012049
S1130A00984710BDE404002070B50022104B1A7002
S1130A10002310491F25104E0D4C0AE00D4908E033
S1130A2023780133DBB223700F2B10D800211F2B46
S1130A30F4D9280018400122824008691042EFD0FE
S1130A400A619B009B59002BEAD09847E8E770BDE8
S1130A504805002000180040F404002000B583B0CD
S1130A6001AB80221A700A785A704A789A708A7890
S1130A70DA701900014B984703B000BD410C000027
S1130A800C4B1B68002B06D1EFF31083002B07D00F
S1130A900022094B1A70074A136801331360704728
S1130AA072B6BFF35F8F0022044B1A700132024BFF
S1130AB01A70F0E7EC040020F0040020000000208D
S1130AC0084B1A68013A1A601B68002B09D1064BBF
S1130AD01B78002B05D00122044B1A70BFF35F8FE3
S1130AE062B67047EC040020F004002000000020EF
S1130AF010B50400064B9847064B1C70064A5388F1
S1130B008021C9010B435380044B984710BDC04654
S1130B10810A0000020C0040000C0040C10A0000E1
S1130B2010B504000F4B98470F4B1C700F4A5388A5
S1130B301B05180F53880E490B40538053880D49E9
S1130B400B40538011008022D2014B881342FCD108
S1130B5006494A8803020648024013434B80064B69
S1130B60984710BD810A0000020C0040000C0040B0
S1130B70FFF0FFFFFFBFFFFFC10A000010B50C78B4
S1130B8024020443024B9847A4B2024B5C8010BD7C
S1130B90210B0000000C004030B5D378002B35D178
S1130BA01378802B29D01B068024640223435478B5
S1130BB00225AC4306D19478002C20D18024A402D1
S1130BC0234341605478013C012C1CD90D042D0CA5
S1130BD0A024E4052C431C4384620D0CD024240679
S1130BE02C431C438462D478002C22D15B031CD593
S1130BF09378012B1ED0416117E00023D7E7C0246E
S1130C00E4022343DDE70D4C2340DFE741600C049D
S1130C10240CA023DB05234383620C0CD0231B0686
S1130C2023438362D378002B03D15378013B012BF8
S1130C3002D930BD8161F8E78160FAE7FFFFFBFF6D
S1130C4010B50A00C1090023002904D14309DB01BE
S1130C5005498C4663441F2420400121814018002B
S1130C60024B984710BDC04600440041990B000058
S1130C70FEE7000010B5264A264B9A4211D01A000E
S1130C80254B9A420DD2254A03339B1A9B08013304
S1130C909B0000221F481E498C58845004329A42FB
S1130CA0FAD11F4A1F4B9A420AD2D3431D495B18FB
S1130CB003218B4304339B18002102C29342FCD1CD
S1130CC0194AFF21194B8B439360FD3990235B0034
S1130CD0174AD150174B9A7B2E318A4320210A435D
S1130CE09A739A7B0C218A4308210A439A739A7B4C
S1130CF003218A4302210A439A730F4A53688021CD
S1130D000B4353600D4B98470D4B9847FEE7C04685
S1130D101C0F000000000020340400200400002008
S1130D20340400207005002000ED00E00000000005
S1130D30007000410048004100400041550D000092
S1130D4025020000014A024B1A60704740420F001E
S1130D500400002070B50D4E0D4D0024AD1BAD10E8
S1130D6005D0A300F35801349847A542F9D100F007
S1130D70C3F8084E084D0024AD1BAD1005D0A300E8
S1130D80F35801349847A542F9D170BD040F00000F
S1130D90040F0000040F00000C0F0000034B10B5FB
S1130DA0002B02D0024800F005F810BD000000003E
S1130DB0C50D000010B5010000230022002000F042
S1130DC01FF810BD70B5094B094CE41AA41009D0E2
S1130DD0084AA518AD00ED182B68013C9847043D5E
S1130DE0002CF9D100F092F870BDC046180F000035
S1130DF01C0F0000FFFFFF3F7047C0467047C0460E
S1130E00F0B54E464546DE465746E0B5364D83B00E
S1130E100600286898460F009146FFF7EDFF334B14
S1130E201C68A4235B00E058002852D043681F2BA1
S1130E3013DC5A1C0192002E28D1019A02339B0024
S1130E4042601F502868FFF7D9FF002003B03CBC64
S1130E5090469946A246AB46F0BD254B002B3DD0AB
S1130E60C820400000E000BF002837D0A42200239F
S1130E705200A15843600160A050403283500432B4
S1130E808350013301930023002ED6D09A0092465A
S1130E9082444A46882154466250C42252009146F4
S1130EA081444A468739994012688B460A439446DE
S1130EB04A4661461160842241465200A150022EE6
S1130EC0BBD102005C468D32FF3211680C431460C2
S1130ED0B3E720004D30FF30E050A7E72868FFF764
S1130EE08DFF01204042B1E730040020F40E0000E1
S1130EF00000000008000020F8B5C046F8BC08BC9B
S1130F009E4670479D0D0000B5000000F8B5C04630
S10F0F10F8BC08BC9E4670478D00000031
S1130F1C0100000040420F0000000000F402002019
S1130F2C5C030020C403002000000000000000004B
S1130F3C00000000000000000000000000000000A1
S1130F4C0000000000000000000000000000000091
S1130F5C0000000000000000000000000000000081
S1130F6C0000000000000000000000000000000071
S1130F7C0000000000000000000000000000000061
S1130F8C0000000000000000000000000000000051
S1130F9C0000000000000000000000000000000041
S1130FAC0000000000000000000000000000000031
S1130FBC0000000000000000000000000000000021
S1130FCC01000000000000000E33CDAB34126DE6BE
S1130FDCECDE05000B000000000000000000000027
S1130FEC00000000000000000000000000000000F1
S1130FFC00000000000000000000000000000000E1
S113100C00000000000000000000000000000000D0
S113101C00000000000000000000000000000000C0
S107134C4C05002028
S9030000FC
