S01100004D696E69436C69636B2E73726563A0
S1130000F80D0020DD160000D9160000D9160000F6
S113001000000000000000000000000000000000DC
S1130020000000000000000000000000D9160000DD
S11300300000000000000000D9160000D9160000DE
S1130040D9160000D9160000550C0000D91600007E
S11300505D0E0000D9160000D91600000000000053
S1130060D91600003D0E00004D0E000000000000F7
S113007000000000D50C0000E50C0000D9160000BB
S11300800000000000000000D916000010B5064C66
S11300902378002B07D1054B002B02D0044800E045
S11300A000BF0123237010BD54080020000000008D
S11300B0B8250000084B10B5002B03D007490848A9
S11300C000E000BF07480368002B00D110BD064BB9
S11300D0002BFBD09847F9E70000000058080020E7
S11300E0B8250000B8250000000000000368DB69A3
S11300F09B07FBD170470000F0B583B004001A4998
S11301004B681A780F2313406A46D37101230B807E
S1130110D379DBB2002B07D0012B16D01249200073
S1130120124B984703B0F0BD6B46DE1DDD79EDB28E
S11301300D4F380008300E4B98477D1928763278D9
S11301403B0018339B187B60E8E76B46DF1DD979C9
S1130150054E35001835691830000830054B9847AE
S11301603B78ED187560D9E770080020B7070000E8
S11301706D0A0000E10A000010B5044901230B8058
S11301800B0024334B60024B984710BD70080020CD
S11301908F07000010B5012800D010BD074B99420D
S11301A0FBD1074C08340A212000064B9847064A25
S11301B006492000064B9847EFE7C046FFFF0000C2
S11301C070080020610A0000000000206B0A000093
S11301D0E117000030B58DB002AA00211170802310
S11301E09B03536001235B42138100235181D1811E
S11301F0137453745161137653769376D1611162FB
S113020024315354013153540131535412239381F3
S11302100D4C250028350D4928000D4B98476B4699
S1130220D871A46A20000B4B98471F2318401E3B2B
S11302308340094A13602800084B98472368022228
S1130240134323600DB030BD700800200008004245
S1130250E5050000210E000000E100E0ED000000D3
S1130260F8B50E4C02220E490E480F4DA847260041
S11302704D36337804221343DBB233700227A36A6A
S11302809F75032209490748A84733780822134376
S1130290DBB23370A36A9F75F8BDC04670080020B6
S11302A0F90000009808002075070000790100009B
S11302B070B582B001AC0023237001266670A37070
S11302C021001020084DA84721001120A847210033
S11302D01620A84721001720A847267021001B20BC
S11302E0A84702B070BDC0461D0F000030B583B0F2
S11302F001AC002363700122A270E3700233237007
S113030021000E20034DA84721000F20A84703B069
S113031030BDC046A916000010B590B09A4B98475E
S11303209A4B98479A4B98479A4B98479A4B9847B9
S11303309A4B98479A4B98470C22002105A8994B51
S113034098470A23042205A901A8974CA04701A8AD
S1130350964B98478AE0812110000830944B9847C7
S113036080221205934B9A61934908A8934B9847AE
S1130370089A002101A8924B9847A6E0822191484F
S113038008308B4B9847802212058A4B9A618A4920
S113039009A88A4B9847099A012101A8884B9847D4
S11303A09EE0832187480830814B984780221205BC
S11303B0804B9A6180490AA8804B98470A9A022187
S11303C001A87F4B984796E084217E480830784BFB
S11303D0984780221205774B9A6177490BA8774B8F
S11303E098470B9A032101A8754B98478EE0412149
S11303F0100008306E4B9847802212056D4B5A61ED
S113040000210CA86D4B98470C9A002101A86C4B55
S1130410984785E042216B480830654B9847802215
S11304201205644B5A6100210DA8644B98470D9A3C
S1130430012101A8624B98477DE0432161480830BF
S11304405B4B9847802212055A4B5A6100210EA833
S11304505A4B98470E9A022101A8594B984775E0C8
S11304600A20594B984701A8504B98470020574BF6
S11304709847009053490B6ECB654E48036A80221F
S1130480520213405A1E9341DBB260228B54026A1B
S11304908024A4022240541EA24160314A70026AA0
S11304A08024E4032240541EA2418A70026A802000
S11304B000040240501E8241CA70002B05D15C33F7
S11304C0404AD35C002B00D045E73E4B60335B7859
S11304D0002B05D13B4B5C335B78002B00D04DE700
S11304E0384B60339B78002B05D1364B5C339B78BB
S11304F0002B00D055E7334B6033DB78002B05D15C
S1130500304B5C33DB78002B00D05DE760232D4A51
S1130510D35C002B04D05C23D35C002B00D166E7B2
S1130520284B60335B78002B05D0264B5C335B781B
S1130530002B00D16EE7234B60339B78002B05D052
S1130540204B5C339B78002B00D176E71D4B603346
S1130550DB78002B84D01B4B5C33DB78002B00D082
S11305607EE7442117480830114B98478022120532
S1130570104B5A6100210FA8104B98470F9A032182
S113058001A80F4B98476BE7AD1700002512000038
S1130590B10E0000B1020000ED020000D501000020
S11305A061020000B1200000690B0000490C00004A
S11305B0B50A0000004400410080FF00110B000058
S11305C01D0B000070080020F10E000099140000BB
S11305D010B502490120024B984710BDFFFF0000EF
S11305E095010000F0B5CE46474680B583B00500BE
S11305F00C00160029600B681C209B0704D503B06F
S11306000CBC90469946F0BD0B681738DB07F6D44E
S113061008004D4B994698474C4A116A831C0127A0
S1130620B8469F403B000B43136201A9737E0B70D5
S11306300E30C3B21F001800454B98473800454B95
S11306409847707E0021444B98472868C8470700A4
S11306504249434B9847BF00424BFD50002324229C
S1130660AB540132AB54EB84337E6B7210232360A2
S11306702C683389EB80337C2B7280236A46137099
S1130680002353706B4642469A7000236A46D37027
S1130690F069356A00284BD06B46187002236A460D
S11306A05370000CC0B269462F4B9847002D44D0BC
S11306B06B461D7002236A4653702D0CE8B26946DE
S11306C0294B9847B37E8022002B04D1274B9B787B
S11306D09B07DB0FDA012523F35C002B04D1802375
S11306E09B047169994202D180231B051A43206837
S11306F0736871690B432421715C89070B432621BC
S1130700715CC9050B43034313432360728980233F
S11307105B0013436360B3895B00F28952041343A3
S1130720727C1343327CD20313436362002066E776
S1130730002120000E4B9847AEE7012120000C4B0E
S113074098470500B4E7C046C10D0000000400400E
S1130750B115000025150000F50C0000E1070000AC
S1130760E90D0000C0090020A91600000020004186
S1130770410D000010B5931C9B00C318596024243C
S1130780035D012191400B43DBB2035510BD028D83
S11307900523002A01D0180070474B68C3620B88F8
S11307A003850B88C38405323123C25403680232A3
S11307B09A750023EFE7028D0523002A01D0180063
S11307C070474B68C3620B8803850B88C38405326A
S11307D03123C254036802329A750023EFE7000004
S11307E070B580009B4BC45825682523E35C242204
S11307F0A65C1E402B7E9B0700D495E0E38C9BB245
S1130800228D93420DD03023E35C002B09D1312299
S1130810A354E3842385B3070BD5236920009847A9
S113082007E0E38C9BB29A4203D03023E35C012BB4
S113083022D06A8B43231A4204D01022123BE25482
S1130840B30624D4637A002B25D16B8B1B074AD5BE
S113085001223023E254730738D4E38C9BB2002B7B
S113086038D125687C4B984700236B838023DB02B7
S11308706B607A4B984718E000233122A354E38439
S11308802385F307D5D5E36820009847D1E7236A89
S113089020009847D6E725686F4B984700236B8361
S11308A08023DB026B606D4B984723681A7ED20766
S11308B001D501221A7602221A762468664B9847DB
S11308C0002363836360654B984770BD63692000B0
S11308D09847C2E72568604B984700236B836B6099
S11308E05E4B9847E1E700223023E25433070ED4ED
S11308F0E38C9BB2002B0ED12568574B98470023FD
S11309006B838023DB026B60544B9847CDE7A3696C
S113091020009847ECE725684F4B984700236B83EA
S11309206B604E4B9847C0E72B7EDB072ED5012327
S11309302B7604332B752033E35C5B0705D4252326
S1130940E35C1B0701D402232B753123E35C1E2BCC
S1130950BBD03123E35C102BB7D000233122A35446
S1130960E3842385B30703D53023E35C002B09D04C
S1130970F307AAD53023E35C012BA6D1E36820005A
S11309809847A2E72369200098479EE72B7E5B07E0
S11309909BD5238D002B1ED03022A25C012A13D0BC
S11309A0E38C9BB2002B00D18FE73023E35C002B58
S11309B044D0E36A5A1CE2621B78DBB22822AB54AF
S11309C0238D013B238580E7E28C92B29342E7D2E8
S11309D06B8B5B07E4D500232385E3843033E35C2E
S11309E0002B17D11C4B984700236B838023DB0219
S11309F06B601A4B98476A6880239B0213436B60B1
S1130A001E223123E254F30600D45EE7E36920009A
S1130A1098475AE7104B984700236B838023DB02E7
S1130A206B600E4B98476A6880239B0213436B608C
S1130A3031230022E2542D3B2B7546E7E26A531C16
S1130A40E3622823EB5CDBB21370238D013B238527
S1130A503BE7C046C0090020410F0000810F0000A1
S1130A6081720023C372037370477047037BC17A9A
S1130A708B4205DA827A5B1AD8B21018C0B270477A
S1130A805B1AD8B2FBE7C37A007BC01A43425841D1
S1130A90C0B2704710B50400007B0130A17A044B4A
S1130AA09847E07A401A41424841C0B210BDC0465E
S1130AB0D11A000070B504000D00074B98470028B8
S1130AC008D1207B25540130A17A044B9847217327
S1130AD0012070BD0020FCE7950A0000D11A000037
S1130AE070B504000D00084B984700280AD1E37A3A
S1130AF0E35C2B70E07A0130A17A044B9847E172F1
S1130B00012070BD0020FCE7870A0000D11A000014
S1130B100B0C03700B0A43708170704730B583B0BF
S1130B200192038899420DDA4B0059184A1C01AB13
S1130B301C784568AC545A7844686254426802315F
S1130B409B78535403B030BD00B583B001A9012391
S1130B504B7000228A700B70007A024B984703B0E6
S1130B6000BDC0461D0F000010B504000020E06069
S1130B70237222806160A0702000024B98472000FD
S1130B8010BDC046490B000030B54368002B00D1AE
S1130B9057E005886A00AD18ADB2007AC209410970
S1130BA0002A07DD0021012282405D19581C1C78AF
S1130BB080231FE0C901234A94466144F3E74A6154
S1130BC0C046C046C046C046C046C046C046C046F1
S1130BD0C046C046C046C046C046C046C046C046E1
S1130BE0C046C046C046C04624E0A84229D2047884
S1130BF0013080238A61C046C046C046C046C04614
S1130C00C046C046C0462342D9D0C046C046C046AE
S1130C10C046C046C046C046C046C046C046C046A0
S1130C20C046C046C046C046C046C046C046C04690
S1130C30C0464A615B08D8D0C046C046C046C046DC
S1130C40D8E730BD0044004110B5014B984710BDB2
S1130C50890B000010B50122034B9A71034B1B68EA
S1130C60002B00D0984710BD00100040B4090020AC
S1130C7070B58000164BC45823689D7B227E637E2A
S1130C8013401D40EB0706D4AB070BD4EB0610D47E
S1130C90AB0615D470BD2000A368984701232268D1
S1130CA09373F1E72000E368984702232268937363
S1130CB0ECE7200023699847102322689373E7E741
S1130CC0200063699847236820229A73E2E7C046AC
S1130CD0B809002010B50020014B984710BDC0464C
S1130CE0710C000010B50120014B984710BDC0469F
S1130CF0710C000010B582B004000E4B1B78002B61
S1130D0007D0002905D10B4B5B78834210D01D20FE
S1130D100CE001A90C700D20074B98470D20074BE0
S1130D209847044B5C7001221A70002002B010BD79
S1130D300020FBE710090020B11500002515000074
S1130D40154B984204D0154B984211D0002070479F
S1130D50012907D000291BD0022905D0032905D079
S1130D600020F4E70E48F2E70E48F0E70E48EEE7FD
S1130D70012907D000290DD0022905D0032905D067
S1130D800020E4E70948E2E70948E0E70948DEE72C
S1130D900948DCE70948DAE700080042000C004291
S1130DA003000500030008000300090002001F00FF
S1130DB002001800020019000300040002001E00D3
S1130DC0064B984208D0064A0023904201D01800EE
S1130DD070470133DBB2FAE70023FBE70008004267
S1130DE0000C00427047000030B5094B1B78002B03
S1130DF00AD1084C084D2560084B00221A60656032
S1130E005A600132024B1A708000024BC15030BD4F
S1130E101209002014090020E50D0000C00900207B
S1130E2010B582B001AC0923237001336370024B07
S1130E309847205602B010BDC10D000010B5024BFA
S1130E401B680020984710BD1409002010B5024B00
S1130E505B680120984710BD1409002070B500227A
S1130E60104B1A70002310491F25104E0D4C0AE038
S1130E700D4908E023780133DBB223700F2B10D81F
S1130E8000211F2BF4D92800184001228240086950
S1130E901042EFD00A619B009B59002BEAD098477F
S1130EA0E8E770BDC809002000180040740900205C
S1130EB070B50020084B98470500084CFA218900BA
S1130EC0A047074B186007492800A047064B186045
S1130ED00522064B1A6070BD99140000F11700003A
S1130EE00400002040420F000800002010E000E051
S1130EF030B5084B1C68084A002580214902013896
S1130F0007D3002CFBD05460956013680B42FCD0CF
S1130F10F5E730BD0400002010E000E000B583B028
S1130F2001AB80221A700A785A704A789A708A78CB
S1130F30DA701900014B984703B000BDA9160000F0
S1130F400C4B1B68002B06D1EFF31083002B07D04A
S1130F500022094B1A70074A136801331360704763
S1130F6072B6BFF35F8F0022044B1A700132024B3A
S1130F701A70F0E71C090020200900200C00002052
S1130F80084B1A68013A1A601B68002B09D1064BFA
S1130F901B78002B05D00122044B1A70BFF35F8F1E
S1130FA062B670471C090020200900200C000020B4
S1130FB010B5082803D880001C4B1B589F460020FE
S1130FC032E01B4B18692FE01A4B1B6A9B059B0FE1
S1130FD01948D84028E0164B586925E0144B1B6883
S1130FE000209B0720D513491022CB681A42FCD05D
S1130FF00F4B1A6824231340042B01D00F4813E02D
S113100000200F4B98470A4B9B681B041B0C58434A
S11310100AE05023074AD35C00205B0704D5044B45
S1131020D86801E08020000210BDC0463C250000C5
S1131030240900200008004000127A00006CDC0241
S1131040CD15000070B50C490B6A0478857840789A
S11310500122104080014026B34303432A40D201B9
S11310608020834313430322224012020348034097
S113107013430B6270BDC04600080040FFFCFFFF35
S1131080F0B5CE46474680B5194B99469B694178E1
S11310908C4605780679C778447980780121084020
S11310A0800004229343034360460840C000043296
S11310B0934303433800084080014027BB43034364
S11310C030000840C0018026B34303430720054095
S11310D02D02084803402B432140090306480340DE
S11310E00B434A4693610CBC90469946F0BDC046FA
S11310F000080040FFF8FFFFFFEFFFFF10B5037A81
S11311009B061B0C42899205920D134318494B60B0
S11311108379C279134342888488224313434278F3
S1131120D20113430B600378042B11D0202B0ED172
S1131130037B9B06028A1343C28912040D490A40A9
S113114013430B4A936011680B4B0B43136010BDA0
S1131150037B9B06028A1343C289120405490A4091
S11311601343034A9360136804210B431360EEE7AF
S1131170240900200000FF0324040000082803D8E9
S11311808000254B1B589F46172044E0234A136ACE
S113119002210B43136200203DE0204A936902219F
S11311A00B439361002036E01C4A138A02210B434F
S11311B0138200202FE0194A938A02210B43938261
S11311C0002028E016490B68022213430B60134BDE
S11311D09A8419000E32CB681A42FCD0104A9168E6
S11311E00E4BD96252689A6200229A841900103216
S11311F0CB681A42FCD00A4B1B689BB2074A938403
S1131200002008E0054944228B5C022003438B54F0
S1131210002000E000207047602500000008004026
S113122024090020F0B58DB0C222D200444B9A604C
S113123044494B681E2293431C3A13434B6001AB51
S11312401A700024404DE0B201A9A8470134182CBB
S1131250F9D13E4D2B68DB0439498A695B0E1B04C6
S11312603B48024013438B610AA801238370002486
S1131270C47003714471053303704470354B98474F
S11312800420354B984705AB00225C809C809A7102
S1131290DA713F2159813B3919705A702B689B0EC2
S11312A03F2B4BD005A80372B723DB00038207232F
S11312B003733833C381294B984704A8002545702C
S11312C0012686700570264B98470620224FB847A2
S11312D0244B984701AC029665702572657204230D
S11312E0237021000120204B984701201F4B984771
S11312F0267021000020144B984700201C4B98476F
S11313000720B8470E49D022CB681340D02BFBD11D
S1131310184A0023137253729372D37201A90122E3
S11313204A604B700B724B7207330B7000200E4BEC
S1131330984700200D4B98470DB0F0BD203BB1E716
S11313400008004000400041B11500002460800006
S1131350FFFF80FF811000007D110000FD100000E0
S113136045100000791300009D130000551400007F
S11313702515000000040040064A936908210B4328
S113138093610122044B1A7019000B781342FCD1AB
S11313907047C04600040040000C004070B50600D1
S11313A004000D782D0205434B78002B02D08023D6
S11313B0DB021D434B7A002B02D080231B031D4309
S11313C04868012810D9431E184234D1022830D964
S11313D00223002201325B009842FBD812023243FE
S11313E0140080235B031D430B7A002B02D080235F
S11313F09B031D43134A53785BB2002BFBDB124B58
S11314009847124B1E700F4A53785BB2002BFBDBDC
S11314100C4B9C601A0053785BB2002BFBDB094A2F
S11314205368802149020B401D435560084B98477F
S113143070BD0022D2E70402344380239B021D4383
S1131440D2E7C046000C0040410F0000080C0040E9
S1131450810F000010B504000B4A53785BB2002BD7
S1131460FBDB0A4B98470A4B1C70074A53785BB264
S1131470002BFBDB044A516880235B020B4353605F
S1131480044B984710BDC046000C0040410F0000BB
S1131490040C0040810F000070B504001A4A537810
S11314A05BB2002BFBDB194B9847194B1C70164A97
S11314B053785BB2002BFBDB134E7068C004C00E84
S11314C0144B98470500124B1C707668F602F60F11
S11314D0114B1C700C4A53785BB2002BFBDB0A4B9C
S11314E09C682402240C0D4B9847002E07D1012C34
S11314F007D9210028000A4B9847050001E0013470
S1131500E540280070BDC046000C0040410F0000BB
S1131510040C0040B10F0000080C0040810F0000D3
S1131520F117000010B50400064B9847064B1C70D9
S1131530064A53888021C9010B435380044B9847C2
S113154010BDC046410F0000020C0040000C0040DA
S1131550810F000010B504000F4B98470F4B1C700F
S11315600F4A53881B05180F53880E490B405380AC
S113157053880D490B40538011008022D2014B88BF
S11315801342FCD106494A88030206480240134329
S11315904B80064B984710BD410F0000020C0040E1
S11315A0000C0040FFF0FFFFFFBFFFFF810F0000B2
S11315B010B50C7824020443024B9847A4B2024BA2
S11315C05C8010BD55150000000C004010B50400EF
S11315D0064B9847064B1C70064B5C882405240F69
S11315E0054B98472000054B984710BD410F00005C
S11315F0020C0040000C0040810F00009914000010
S113160030B5D378002B35D11378802B29D01B0625
S113161080246402234354780225AC4306D1947891
S1131620002C20D18024A402234341605478013C3F
S1131630012C1CD90D042D0CA024E4052C431C43BF
S113164084620D0CD02424062C431C438462D47879
S1131650002C22D15B031CD59378012B1ED0416151
S113166017E00023D7E7C024E4022343DDE70D4C51
S11316702340DFE741600C04240CA023DB05234353
S113168083620C0CD0231B0623438362D378002B84
S113169003D15378013B012B02D930BD8161F8E7B6
S11316A08160FAE7FFFFFBFF10B50A00C1090023C0
S11316B0002904D14309DB0105498C4663441F24F6
S11316C02040012181401800024B984710BDC046BC
S11316D00044004101160000FEE7000010B5264A50
S11316E0264B9A4211D01A00254B9A420DD2254A14
S11316F003339B1A9B0801339B0000221F481E4999
S11317008C58845004329A42FAD11F4A1F4B9A4291
S11317100AD2D3431D495B1803218B4304339B181E
S1131720002102C29342FCD1194AFF21194B8B4379
S11317309360FD3990235B00174AD150174B9A7B75
S11317402E318A4320210A439A739A7B0C218A43BF
S113175008210A439A739A7B03218A4302210A438C
S11317609A730F4A536880210B4353600D4B98477B
S11317700D4B9847FEE7C046B82500000000002046
S1131780540800200400002054080020F40900201C
S113179000ED00E00000000000700041004800413E
S11317A000400041ED1A000019030000014A024BF9
S11317B01A60704740420F00100000200300064AE0
S11317C01268002A04D0044A1068C31813607047D2
S11317D00249014A1160F6E73C090020F80D002097
S11317E00B0010B50100180000F078F910BDC046D8
S11317F0002243088B4274D303098B425FD3030A4C
S11318008B4244D3030B8B4228D3030C8B420DD35E
S1131810FF22090212BA030C8B4202D312120902EC
S113182065D0030B8B4219D300E0090AC30B8B422A
S113183001D3CB03C01A5241830B8B4201D38B03D8
S1131840C01A5241430B8B4201D34B03C01A52417D
S1131850030B8B4201D30B03C01A5241C30A8B42C0
S113186001D3CB02C01A5241830A8B4201D38B02AB
S1131870C01A5241430A8B4201D34B02C01A52414F
S1131880030A8B4201D30B02C01A5241CDD2C309C1
S11318908B4201D3CB01C01A524183098B4201D33D
S11318A08B01C01A524143098B4201D34B01C01A28
S11318B0524103098B4201D30B01C01A5241C308A0
S11318C08B4201D3CB00C01A524183088B4201D30F
S11318D08B00C01A524143088B4201D34B00C01AFB
S11318E05241411A00D20146524110467047FFE767
S11318F001B5002000F0F0F802BDC0460029F7D081
S113190076E7704703460B437FD4002243088B429B
S113191074D303098B425FD3030A8B4244D3030B72
S11319208B4228D3030C8B420DD3FF22090212BA37
S1131930030C8B4202D31212090265D0030B8B42B3
S113194019D300E0090AC30B8B4201D3CB03C01A9D
S11319505241830B8B4201D38B03C01A5241430B78
S11319608B4201D34B03C01A5241030B8B4201D368
S11319700B03C01A5241C30A8B4201D3CB02C01AD3
S11319805241830A8B4201D38B02C01A5241430A4B
S11319908B4201D34B02C01A5241030A8B4201D33A
S11319A00B02C01A5241CDD2C3098B4201D3CB01E1
S11319B0C01A524183098B4201D38B01C01A524190
S11319C043098B4201D34B01C01A524103098B4294
S11319D001D30B01C01A5241C3088B4201D3CB007F
S11319E0C01A524183088B4201D38B00C01A524162
S11319F043088B4201D34B00C01A5241411A00D212
S1131A0001465241104670475DE0CA0F00D049427A
S1131A10031000D34042534000229C4603098B42EA
S1131A202DD3030A8B4212D3FC22890112BA030A72
S1131A308B420CD3890192118B4208D389019211F4
S1131A408B4204D389013AD0921100E08909C30979
S1131A508B4201D3CB01C01A524183098B4201D37B
S1131A608B01C01A524143098B4201D34B01C01A66
S1131A70524103098B4201D30B01C01A5241C308DE
S1131A808B4201D3CB00C01A524183088B4201D34D
S1131A908B00C01A5241D9D243088B4201D34B0068
S1131AA0C01A5241411A00D20146634652415B10AA
S1131AB0104601D34042002B00D54942704763468B
S1131AC05B1000D3404201B5002000F005F802BDD0
S1131AD00029F8D016E770477047C04610B51300C8
S1131AE00A000100022000F04FFB10BD70B50D4E3E
S1131AF00D4D0024AD1BAD1005D0A300F3580134E7
S1131B009847A542F9D100F03FFD084E084D002446
S1131B10AD1BAD1005D0A300F35801349847A5427E
S1131B20F9D170BD9425000094250000942500008F
S1131B30A025000010B5034B0100186800F004F85C
S1131B4010BDC04614000020F0B557464546DE4699
S1131B504E46E0B50D000B3583B00700162D00D8B6
S1131B609FE007239D4300D5C4E0A94200D9C1E00A
S1131B7000F0E8FAF823FF339D4200D88FE2680AA8
S1131B8000D1BBE0042800D962E138239846A809B3
S1131B9080443930C100D24E71180839CC68A14252
S1131BA019D0032362689A431300521B0F2A00DDE5
S1131BB0AAE0002A00DB88E003239C4608E0624692
S1131BC0636893435A1B0F2A00DD9DE0002A7CDAE8
S1131BD0E468A142F3D1320034690832944200D15E
S1131BE090E10323616899438946491B0F2900DD6D
S1131BF062E172613261002900DB87E0B94A4B4639
S1131C00914500D930E1DB08FF3A9910FF3A8A4048
S1131C10DB0071689B190A4399687260E360A160F4
S1131C209C601300CC6001218210914099426FD8CE
S1131C300B4205D103229043490004300B42FBD0F0
S1131C4003239846C3009946B144CC468246634672
S1131C50DC68A44507D157E1002A00DB66E1E468AB
S1131C60A44500D150E14246636893435A1B0F2AAE
S1131C70F2DD01208046611905436560A068E568CE
S1131C800836C560A8604046F160B1601043486002
S1131C90CE608E603800E25000F05CFA200008301C
S1131CA021E0102926D8380000F04CFA102518231A
S1131CB002208B4EF3181A005C68083A944200D153
S1131CC02EE1032362689A431300E268A168CA60A4
S1131CD091600122E318596838000A435A6000F001
S1131CE039FA2000083003B03CBC90469946A2461D
S1131CF0AB46F0BD0C2300203B60F4E780213F237A
S1131D0040208900984646E7404664E74B46E0E7B2
S1131D100323B46862689A439046AA4203D3531BD0
S1131D200F2B00DD86E0230043446F4A01936F4B81
S1131D3093461B681268EB18013200D168E16C4AC3
S1131D40944663441B0B1B0300930099380000F076
S1131D5009FA03008146013361D0019B834200D913
S1131D60FFE0644B009A9A461B689C4653466244C3
S1131D701A60019B1100834200D155E15B461B6848
S1131D80013300D16CE14B46019A9B1A5918534612
S1131D90196007234A46134000D124E108218946EB
S1131DA05549D21A9144CB1A009A38004A44110575
S1131DB0090D5B1A19009B4600F0D4F9431C00D1AD
S1131DC042E14B46C01A01235844184353461B684A
S1131DD05B441900534619604B46B3605860B442E3
S1131DE013D043460F2B00D8E8E04346072260682F
S1131DF00C3B9343063A024005201A436260E21802
S1131E00506090600F2B00D922E13C4B1A6891423C
S1131E1000D919603A4B1A68914200D9196003231A
S1131E20B46862689A43531B954200D9C9E00F2BEA
S1131E3000DCC6E0012229001343114365196160E7
S1131E403800B5606B6000F085F9200008304AE77F
S1131E5014287AD9542800D9BAE06E239846280B5E
S1131E6080446F30C10096E65A0A042A73D9142AB2
S1131E7000D9D0E011005C325B31D20008235B4210
S1131E809C46B218944463469A6803239846944542
S1131E9000D1ABE0434651689943894500D395E0AE
S1131EA092689445F6D16346DA6873686146E260E5
S1131EB0A1609460CC60B6E6012360191D4365609F
S1131EC070613061C26082601A004B460A4342600E
S1131ED03800E15000F03EF92000083003E7C04626
S1131EE040040020FF010000480800207009002081
S1131EF00F100000400900200810000068090020AD
S1131F006C09002073688EE608239B46073BDC447B
S1131F109B46DA4443465246134200D097E637E0E4
S1131F20DC680230A34200D155E6CAE60122E31878
S1131F30596838000A435A60E368A268D3609A601B
S1131F4000F008F920000830CDE65B239846804471
S1131F505C30C1001FE69A09110039323831D200D1
S1131F608CE7B44200D05AE74F4B009A9A461B685C
S1131F709C465346624411001A60FFE608235B4204
S1131F809C46E1444B469B680138994500D084E067
S1131F9043460342F2D173688B437360490099420C
S1131FA000D9B5E6002900D1B2E650460B4200D074
S1131FB048E6490004300B42FBD043E601234A467D
S1131FC05360380000F0C6F800208CE694466AE7B7
S1131FD0AA235B00984211D8DD3B9846E80B804465
S1131FE07830C100D7E580235B01DDE68910023B30
S1131FF08B40726813437360624657E72B4B9842D9
S11320001CD87C239846A80C80447D30C100C2E5CE
S11320101033009399E6542A26D84B461A0B110024
S11320206F326E31D20029E71B0500D0A6E60120ED
S1132030009BB268434403435360E6E6FE217E23DB
S11320407F2089009846A6E5002301209B46BDE633
S113205021003800083100F08FF953461968D4E69E
S11320605B464A461A6094E6AA2149008A4206D889
S11320704B46DA0B110078327731D200FEE60B4979
S11320808A4206D84B469A0C11007D327C31D2002C
S1132090F4E6FE227E219200F0E673687EE72B00D0
S11320A0E808083305E6C04640090020540500004E
S11320B0F0B5830743D0541E002A3FD0CEB20200AD
S11320C0032502E01A00013C38D3531C16702B423E
S11320D0F8D1032C2AD9FF220A40150215432A04F9
S11320E015430F2C14D927001A00103F3E0901365E
S11320F036019E19156055609560D5601032964280
S1132100F8D10F2297431037DB191440032C0DD953
S11321101A00271FBE080136B6009E1920C2B2421B
S1132120FCD1032297430437DB191440002C05D05B
S1132130C9B21C19197001339C42FBD1F0BD1400C3
S11321400300C6E710B5024800F0F4F910BDC0461C
S1132150DC09002010B5024800F0EEF910BDC046BD
S1132160DC090020002370B5064C0500080023603C
S1132170FFF724FB431C00D070BD2368002BFBD069
S11321802B60F9E7F0090020F0B54E464546DE46DF
S11321905746E0B5364D83B00600286898460F00D0
S11321A0914600F0C7F9334B1C68A4235B00E05848
S11321B0002852D043681F2B13DC5A1C0192002EB6
S11321C028D1019A02339B0042601F50286800F016
S11321D0B3F9002003B03CBC90469946A246AB46F6
S11321E0F0BD254B002B3DD0C8204000FFF7A2FCDA
S11321F0002837D0A42200235200A1584360016074
S1132200A0504032835004328350013301930023A1
S1132210002ED6D09A00924682444A4688215446DB
S11322206250C4225200914681444A4687399940FB
S113223012688B460A4394464A46614611608422DA
S113224041465200A150022EBBD102005C468D32A1
S1132250FF3211680C431460B3E720004D30FF30A7
S1132260E050A7E7286800F067F901204042B1E791
S11322705008002084250000351B0000034B10B5D6
S1132280002B02D0024800F005F810BD0000000049
S1132290A522000010B50100002300220020FFF752
S11322A073FF10BD70B5094B094CE41AA41009D092
S11322B0084AA518AD00ED182B68013C9847043D69
S11322C0002CF9D100F06CF970BDC046AC250000BB
S11322D0B0250000FFFFFF3FF8B50C000600FFF734
S11322E031FF204FBB685D6803239D431E4B2C1BAD
S11322F09C466444240B1D4B013C24039C4207DD93
S113230000213000FFF72EFFBB685B19984204D010
S11323103000FFF71FFF0020F8BD61423000FFF7D7
S113232021FF431C0DD00122BB682D1B15435D60AA
S11323300F4B30001A68141B1C60FFF70BFF0120C1
S1132340EAE700213000FFF70DFFBA68831A0F2B6C
S1132350DEDD08490968401A0549086001210B437C
S11323605360D5E740040020EF0F0000FF0F00008A
S11323704009002048080020F8B504000D1E3CD098
S1132380FFF7E0FE29000839486801230500032609
S11323909D434A199C46614F5368B343BE68B24299
S11323A056D06646536006420AD13E000868083695
S11323B0091A2D188868B04265D0CE68C660B0602E
S11323C00120D6187668064233D0554B284348601E
S11323D04D519D4212D8ED08FF3BAA10FF3B93409C
S11323E07A68ED0013437B60EF19BB68CF608B60A4
S11323F0B960D9602000FFF7ADFEF8BD680A042873
S113240050D8A809020039303832C00038180838CA
S11324108368032698424CD05A68B243954230D21E
S11324209B689842F8D1C368CB6088609960C160AA
S1132430E0E7ED183B4E9368B34242D0D26828439C
S1132440DA609360364B48604D519D42D6D8C2E75E
S11324506246EB18024206D10A68891A88689B18FA
S1132460CA68C260906001221A434A602E4AB96069
S113247012689342BED32D4B20001968FFF72CFF3E
S1132480B8E71800CFE76646D018406830423FD11D
S113249090685D19D368C360986063462B434B60B2
S11324A04D51A7E7142814D802005C305B32C000F9
S11324B0ACE70123921093407A6813437B600300D6
S11324C0B2E72843D9609960CB608B6048604D5176
S11324D090E7542805D8280B02006F306E32C000F4
S11324E094E7AA225200904205D8E80B0200783003
S11324F07732C0008AE70E4A904205D8A80C020041
S11325007D307C32C00081E7FE207E2280007DE7A2
S113251063462B434B6015606CE7C04640040020C3
S1132520FF010000480400204C080020700900202E
S1132530540500007047C0467047C046C20F0000F3
S1132540BE0F0000BE0F0000241000002410000085
S1132550D60F0000C80F0000DC0F000012100000AE
S1132560A811000088110000881100001412000056
S11325709A110000B61100008C110000C411000073
S11325800412000018000020F8B5C046F8BC08BCCE
S11325909E4670477D220000B5000000D105000072
S11325A0F8B5C046F8BC08BC9E4670478D000000D4
S10B25B030F2FF7F010000007E
S11325B800000000401F00000800000001000000A7
S11325C840420F001800002000000000040300200F
S11325D86C030020D4030020000000000000000069
S11325E800000000000000000000000000000000DF
S11325F800000000000000000000000000000000CF
S113260800000000000000000000000000000000BE
S113261800000000000000000000000000000000AE
S1132628000000000000000000000000000000009E
S1132638000000000000000000000000000000008E
S1132648000000000000000000000000000000007E
S1132658000000000000000000000000000000006E
S1132668000000000000000000000000000000005E
S113267801000000000000000E33CDAB34126DE6FB
S1132688ECDE05000B000000000000000000000064
S1132698000000000000000000000000000000002E
S11326A8000000000000000000000000000000001E
S11326B8000000000000000000000000000000000E
S11326C800000000000000000000000000000000FE
S11329F80000000000000000400400204004002003
S1132A0848040020480400205004002050040020FA
S1132A1858040020580400206004002060040020AA
S1132A28680400206804002070040020700400205A
S1132A38780400207804002080040020800400200A
S1132A4888040020880400209004002090040020BA
S1132A589804002098040020A0040020A00400206A
S1132A68A8040020A8040020B0040020B00400201A
S1132A78B8040020B8040020C0040020C0040020CA
S1132A88C8040020C8040020D0040020D00400207A
S1132A98D8040020D8040020E0040020E00400202A
S1132AA8E8040020E8040020F0040020F0040020DA
S1132AB8F8040020F8040020000500200005002088
S1132AC80805002008050020100500201005002036
S1132AD818050020180500202005002020050020E6
S1132AE82805002028050020300500203005002096
S1132AF83805002038050020400500204005002046
S1132B0848050020480500205005002050050020F5
S1132B1858050020580500206005002060050020A5
S1132B286805002068050020700500207005002055
S1132B387805002078050020800500208005002005
S1132B4888050020880500209005002090050020B5
S1132B589805002098050020A0050020A005002065
S1132B68A8050020A8050020B0050020B005002015
S1132B78B8050020B8050020C0050020C0050020C5
S1132B88C8050020C8050020D0050020D005002075
S1132B98D8050020D8050020E0050020E005002025
S1132BA8E8050020E8050020F0050020F0050020D5
S1132BB8F8050020F8050020000600200006002083
S1132BC80806002008060020100600201006002031
S1132BD818060020180600202006002020060020E1
S1132BE82806002028060020300600203006002091
S1132BF83806002038060020400600204006002041
S1132C0848060020480600205006002050060020F0
S1132C1858060020580600206006002060060020A0
S1132C286806002068060020700600207006002050
S1132C387806002078060020800600208006002000
S1132C4888060020880600209006002090060020B0
S1132C589806002098060020A0060020A006002060
S1132C68A8060020A8060020B0060020B006002010
S1132C78B8060020B8060020C0060020C0060020C0
S1132C88C8060020C8060020D0060020D006002070
S1132C98D8060020D8060020E0060020E006002020
S1132CA8E8060020E8060020F0060020F0060020D0
S1132CB8F8060020F806002000070020000700207E
S1132CC8080700200807002010070020100700202C
S1132CD818070020180700202007002020070020DC
S1132CE8280700202807002030070020300700208C
S1132CF8380700203807002040070020400700203C
S1132D0848070020480700205007002050070020EB
S1132D18580700205807002060070020600700209B
S1132D28680700206807002070070020700700204B
S1132D3878070020780700208007002080070020FB
S1132D4888070020880700209007002090070020AB
S1132D589807002098070020A0070020A00700205B
S1132D68A8070020A8070020B0070020B00700200B
S1132D78B8070020B8070020C0070020C0070020BB
S1132D88C8070020C8070020D0070020D00700206B
S1132D98D8070020D8070020E0070020E00700201B
S1132DA8E8070020E8070020F0070020F0070020CB
S1132DB8F8070020F8070020000800200008002079
S1132DC80808002008080020100800201008002027
S1132DD818080020180800202008002020080020D7
S1132DE82808002028080020300800203008002087
S1132DF83808002038080020FFFFFFFF0000020009
S1072E08CC090020CD
S9030000FC
