S01100004D696E69436C69636B2E73726563A0
S113000088090020810E00007D0E00007D0E000096
S113001000000000000000000000000000000000DC
S11300200000000000000000000000007D0E000041
S113003000000000000000007D0E00007D0E0000A6
S11300407D0E00007D0E00000D0A00007D0E0000F4
S1130050150C00007D0E00007D0E00000000000065
S11300607D0E0000F50B0000050C000000000000F0
S1130070000000008D0A00009D0A00007D0E0000B3
S113008000000000000000007D0E000010B5064CCA
S11300902378002B07D1054B002B02D0044800E045
S11300A000BF0123237010BD3C04002000000000A9
S11300B02C130000084B10B5002B03D00749084847
S11300C000E000BF07480368002B00D110BD064BB9
S11300D0002BFBD09847F9E7000000004004002003
S11300E02C1300002C130000000000000368DB69DF
S11300F09B07FBD170470000F0B583B004001A4998
S11301004B681A780F2313406A46D37101230B807E
S1130110D379DBB2002B07D0012B16D01249200073
S1130120124B984703B0F0BD6B46DE1DDD79EDB28E
S11301300D4F380008300E4B98477D1928763278D9
S11301403B0018339B187B60E8E76B46DF1DD979C9
S1130150054E35001835691830000830054B9847AE
S11301603B78ED187560D9E758040020B306000009
S113017069090000DD09000010B5044901230B8062
S11301800B0024334B60024B984710BD58040020E9
S11301908B06000010B5012800D010BD074B994212
S11301A0FBD1074C08340A212000064B9847064A25
S11301B006492000064B9847EFE7C046FFFF0000C2
S11301C0580400205D0900000000002067090000B9
S11301D0610F000030B58DB002AA00211170802398
S11301E09B03536001235B42138100235181D1811E
S11301F0137453745161137653769376D1611162FB
S113020024315354013153540131535412239381F3
S11302100D4C250028350D4928000D4B98476B4699
S1130220D871A46A20000B4B98471F2318401E3B2B
S11302308340094A13602800084B98472368022228
S1130240134323600DB030BD580400200008004261
S1130250E1040000D90B000000E100E0ED00000023
S1130260F8B50E4C02220E490E480F4DA847260041
S11302704D36337804221343DBB233700227A36A6A
S11302809F75032209490748A84733780822134376
S1130290DBB23370A36A9F75F8BDC04658040020D2
S11302A0F9000000800400207106000079010000BC
S11302B070B582B001AC0023237001266670A37070
S11302C021001020084DA84721001120A847210033
S11302D01620A84721001720A847267021001B20BC
S11302E0A84702B070BDC046690C000030B583B0A9
S11302F001AC002363700122A270E3700233237007
S113030021000E20034DA84721000F20A84703B069
S113031030BDC0464D0E000010B5644B9847644B89
S11303209847644B9847644B9847644B9847644993
S11303300B6ECB656348036A8022520213405A1E37
S11303409341DBB260228B54026A8024A4022240CF
S1130350541EA24160314A70026A8024E4032240A0
S1130360541EA2418A70026A802000040240501E7A
S11303708241CA70002B04D15C33514AD35C002BF8
S11303804ED14F4B60335B78002B04D14C4B5C3324
S11303905B78002B4ED14A4B60339B78002B04D101
S11303A0474B5C339B78002B4ED1454B6033DB7855
S11303B0002B04D1424B5C33DB78002B4ED16023FD
S11303C03F4AD35C002B03D05C23D35C002B4FD07B
S11303D03B4B60335B78002B04D0394B5C335B7848
S11303E0002B4FD0364B60339B78002B04D0344B1A
S11303F05C339B78002B4FD0314B6033DB78002B80
S113040095D02F4B5C33DB78002B90D144212C48C2
S113041008302D4B9847802212052A4B5A6186E7F3
S1130420812110000830284B984780221205254B63
S11304309A61A6E7822122480830234B98478022FC
S11304401205204B9A61A6E783211D4808301E4BF4
S11304509847802212051B4B9A61A6E7842118480D
S11304600830194B984780221205164B9A61A6E76B
S1130470412110000830144B984780221205114B7B
S11304805A61A5E742210E4808300F4B9847802255
S113049012050C4B5A61A5E74321094808300A4B61
S11304A0984780221205074B5A61A5E7510F0000B7
S11304B0B1020000ED020000D5010000610200005D
S11304C05804002000440041B109000010B502495D
S11304D00120024B984710BDFFFF0000950100006A
S11304E0F0B5CE46474680B583B005000C00160033
S11304F029600B681C209B0704D503B00CBC9046F4
S11305009946F0BD0B681738DB07F6D408004D4B4D
S1130510994698474C4A116A831C0127B8469F4064
S11305203B000B43136201A9737E0B700E30C3B200
S11305301F001800454B98473800454B9847707E7C
S11305400021444B98472868C84707004249434B59
S11305509847BF00424BFD5000232422AB54013284
S1130560AB54EB84337E6B72102323602C68338985
S1130570EB80337C2B7280236A4613700023537004
S11305806B4642469A7000236A46D370F069356A16
S113059000284BD06B46187002236A465370000C37
S11305A0C0B269462F4B9847002D44D06B461D704E
S11305B002236A4653702D0CE8B26946294B9847CA
S11305C0B37E8022002B04D1274B9B789B07DB0F43
S11305D0DA012523F35C002B04D180239B04716989
S11305E0994202D180231B051A43206873687169FC
S11305F00B432421715C89070B432621715CC905D7
S11306000B43034313432360728980235B0013432A
S11306106360B3895B00F28952041343727C134311
S1130620327CD20313436362002066E7002120007A
S11306300E4B9847AEE7012120000C4B984705006C
S1130640B4E7C046790B000000040040890D0000A7
S1130650FD0C0000AD0A0000DD060000A10B000047
S1130660580500204D0E000000200041F90A00004A
S113067010B5931C9B00C31859602424035D012109
S113068091400B43DBB2035510BD028D0523002AB4
S113069001D0180070474B68C3620B8803850B8830
S11306A0C38405323123C254036802329A7500238D
S11306B0EFE7028D0523002A01D0180070474B682C
S11306C0C3620B8803850B88C38405323123C2546B
S11306D0036802329A750023EFE7000070B58000CA
S11306E09B4BC45825682523E35C2422A65C1E404A
S11306F02B7E9B0700D495E0E38C9BB2228D934222
S11307000DD03023E35C002B09D13122A354E384C0
S11307102385B3070BD523692000984707E0E38CB2
S11307209BB29A4203D03023E35C012B22D06A8B24
S113073043231A4204D01022123BE254B30624D4B9
S1130740637A002B25D16B8B1B074AD501223023FA
S1130750E254730738D4E38C9BB2002B38D125685C
S11307607C4B984700236B838023DB026B607A4BBE
S1130770984718E000233122A354E3842385F30728
S1130780D5D5E36820009847D1E7236A200098472D
S1130790D6E725686F4B984700236B838023DB02E1
S11307A06B606D4B984723681A7ED20701D50122EE
S11307B01A7602221A762468664B984700236383CC
S11307C06360654B984770BD636920009847C2E732
S11307D02568604B984700236B836B605E4B98479A
S11307E0E1E700223023E25433070ED4E38C9BB2BA
S11307F0002B0ED12568574B984700236B83802329
S1130800DB026B60544B9847CDE7A36920009847FF
S1130810ECE725684F4B984700236B836B604E4B86
S11308209847C0E72B7EDB072ED501232B760433B4
S11308302B752033E35C5B0705D42523E35C1B079E
S113084001D402232B753123E35C1E2BBBD031234F
S1130850E35C102BB7D000233122A354E384238517
S1130860B30703D53023E35C002B09D0F307AAD5E3
S11308703023E35C012BA6D1E36820009847A2E76C
S11308802369200098479EE72B7E5B079BD5238D29
S1130890002B1ED03022A25C012A13D0E38C9BB221
S11308A0002B00D18FE73023E35C002B44D0E36AB4
S11308B05A1CE2621B78DBB22822AB54238D013B25
S11308C0238580E7E28C92B29342E7D26B8B5B077D
S11308D0E4D500232385E3843033E35C002B17D174
S11308E01C4B984700236B838023DB026B601A4BFD
S11308F098476A6880239B0213436B601E2231234E
S1130900E254F30600D45EE7E369200098475AE70F
S1130910104B984700236B838023DB026B600E4BE4
S113092098476A6880239B0213436B60312300223B
S1130930E2542D3B2B7546E7E26A531CE3622823FD
S1130940EB5CDBB21370238D013B23853BE7C04690
S1130950580500208D0C0000CD0C0000817200238E
S1130960C372037370477047037BC17A8B4205DA05
S1130970827A5B1AD8B21018C0B270475B1AD8B228
S1130980FBE7C37A007BC01A43425841C0B27047A8
S113099010B50400007B0130A17A044B9847E07A3B
S11309A0401A41424841C0B210BDC0463D1100004A
S11309B070B504000D00074B9847002808D1207B30
S11309C025540130A17A044B98472173012070BD4E
S11309D00020FCE7910900003D11000070B50400FF
S11309E00D00084B984700280AD1E37AE35C2B708A
S11309F0E07A0130A17A044B9847E172012070BD7E
S1130A000020FCE7830900003D11000010B501221D
S1130A10034B9A71034B1B68002B00D0984710BD01
S1130A20001000404C05002070B58000164BC458DF
S1130A3023689D7B227E637E13401D40EB0706D412
S1130A40AB070BD4EB0610D4AB0615D470BD200055
S1130A50A3689847012322689373F1E72000E368B1
S1130A609847022322689373ECE720002369984790
S1130A70102322689373E7E720006369984723688B
S1130A8020229A73E2E7C0465005002010B50020EA
S1130A90014B984710BDC046290A000010B501203B
S1130AA0014B984710BDC046290A000010B582B01A
S1130AB004000E4B1B78002B07D0002905D10B4BEB
S1130AC05B78834210D01D200CE001A90C700D202E
S1130AD0074B98470D20074B9847044B5C70012245
S1130AE01A70002002B010BD0020FBE7F8040020BB
S1130AF0890D0000FD0C0000154B984204D0154BE5
S1130B00984211D000207047012907D000291BD03A
S1130B10022905D0032905D00020F4E70E48F2E7A6
S1130B200E48F0E70E48EEE7012907D000290DD062
S1130B30022905D0032905D00020E4E70948E2E7AB
S1130B400948E0E70948DEE70948DCE70948DAE74D
S1130B5000080042000C00420300050003000800E6
S1130B600300090002001F0002001800020019001F
S1130B700300040002001E00064B984208D0064AF7
S1130B800023904201D0180070470133DBB2FAE72A
S1130B900023FBE700080042000C004270470000FD
S1130BA030B5094B1B78002B0AD1084C084D256041
S1130BB0084B00221A6065605A600132024B1A70B9
S1130BC08000024BC15030BDFA040020FC04002018
S1130BD09D0B00005805002010B582B001AC09231C
S1130BE0237001336370024B9847205602B010BD46
S1130BF0790B000010B5024B1B680020984710BD0C
S1130C00FC04002010B5024B5B680120984710BD1E
S1130C10FC04002070B50022104B1A700023104908
S1130C201F25104E0D4C0AE00D4908E023780133CE
S1130C30DBB223700F2B10D800211F2BF4D928000E
S1130C4018400122824008691042EFD00A619B00DB
S1130C509B59002BEAD09847E8E770BD6005002057
S1130C60001800400C05002000B583B001AB8022C1
S1130C701A700A785A704A789A708A78DA70190069
S1130C80014B984703B000BD4D0E00000C4B1B6890
S1130C90002B06D1EFF31083002B07D00022094B61
S1130CA01A70074A136801331360704772B6BFF3B2
S1130CB05F8F0022044B1A700132024B1A70F0E766
S1130CC0040500200805002004000020084B1A68D1
S1130CD0013A1A601B68002B09D1064B1B78002BC4
S1130CE005D00122044B1A70BFF35F8F62B67047C0
S1130CF004050020080500200400002010B50400AD
S1130D00064B9847064B1C70064A53888021C9013C
S1130D100B435380044B984710BDC0468D0C000014
S1130D20020C0040000C0040CD0C000010B5040083
S1130D300F4B98470F4B1C700F4A53881B05180F15
S1130D4053880E490B40538053880D490B40538000
S1130D5011008022D2014B881342FCD106494A88F3
S1130D6003020648024013434B80064B984710BDCC
S1130D708D0C0000020C0040000C0040FFF0FFFF4F
S1130D80FFBFFFFFCD0C000010B50C782402044314
S1130D90024B9847A4B2024B5C8010BD2D0D00009D
S1130DA0000C004030B5D378002B35D11378802B5C
S1130DB029D01B0680246402234354780225AC43C3
S1130DC006D19478002C20D18024A40223434160CE
S1130DD05478013C012C1CD90D042D0CA024E405ED
S1130DE02C431C4384620D0CD02424062C431C4346
S1130DF08462D478002C22D15B031CD59378012B18
S1130E001ED0416117E00023D7E7C024E402234346
S1130E10DDE70D4C2340DFE741600C04240CA023E4
S1130E20DB05234383620C0CD0231B06234383621C
S1130E30D378002B03D15378013B012B02D930BD69
S1130E408161F8E78160FAE7FFFFFBFF10B50A0054
S1130E50C1090023002904D14309DB0105498C465B
S1130E6063441F242040012181401800024B98470D
S1130E7010BDC04600440041A50D0000FEE700007F
S1130E8010B5264A264B9A4211D01A00254B9A4295
S1130E900DD2254A03339B1A9B0801339B00002281
S1130EA01F481E498C58845004329A42FAD11F4A72
S1130EB01F4B9A420AD2D3431D495B1803218B432B
S1130EC004339B18002102C29342FCD1194AFF212A
S1130ED0194B8B439360FD3990235B00174AD15023
S1130EE0174B9A7B2E318A4320210A439A739A7BAB
S1130EF00C218A4308210A439A739A7B03218A436B
S1130F0002210A439A730F4A536880210B435360AA
S1130F100D4B98470D4B9847FEE7C0462C13000035
S1130F20000000203C040020040000203C040020B9
S1130F308805002000ED00E0000000000070004182
S1130F40004800410040004159110000190300000D
S1130F50014A024B1A60704740420F00080000200B
S1130F600B0010B50100180000F0EEF810BDC046EB
S1130F7003460B437FD4002243088B4274D30309F6
S1130F808B425FD3030A8B4244D3030B8B4228D397
S1130F90030C8B420DD3FF22090212BA030C8B42BD
S1130FA002D31212090265D0030B8B4219D300E05D
S1130FB0090AC30B8B4201D3CB03C01A5241830BE2
S1130FC08B4201D38B03C01A5241430B8B4201D392
S1130FD04B03C01A5241030B8B4201D30B03C01ABB
S1130FE05241C30A8B4201D3CB02C01A5241830A35
S1130FF08B4201D38B02C01A5241430A8B4201D364
S11310004B02C01A5241030A8B4201D30B02C01A8D
S11310105241CDD2C3098B4201D3CB01C01A5241F4
S113102083098B4201D38B01C01A524143098B427D
S113103001D34B01C01A524103098B4201D30B0166
S1131040C01A5241C3088B4201D3CB00C01A52418B
S113105083088B4201D38B00C01A524143088B4250
S113106001D34B00C01A5241411A00D201465241E9
S1131070104670475DE0CA0F00D04942031000D308
S11310804042534000229C4603098B422DD3030A5D
S11310908B4212D3FC22890112BA030A8B420CD36D
S11310A0890192118B4208D3890192118B4204D396
S11310B089013AD0921100E08909C3098B4201D316
S11310C0CB01C01A524183098B4201D38B01C01A50
S11310D0524143098B4201D34B01C01A52410309C7
S11310E08B4201D30B01C01A5241C3088B4201D376
S11310F0CB00C01A524183088B4201D38B00C01A23
S11311005241D9D243088B4201D34B00C01A5241F9
S1131110411A00D20146634652415B10104601D386
S11311204042002B00D54942704763465B1000D310
S1131130404201B5002000F005F802BD0029F8D0B6
S113114016E770477047C04610B513000A00010047
S1131150022000F025F810BD70B50D4E0D4D002491
S1131160AD1BAD1005D0A300F35801349847A54238
S1131170F9D100F0C3F8084E084D0024AD1BAD10A2
S113118005D0A300F35801349847A542F9D170BDA6
S113119008130000081300000813000014130000D3
S11311A0F0B54E464546DE465746E0B5364D83B06B
S11311B00600286898460F00914600F099F8334BD2
S11311C01C68A4235B00E058002852D043681F2BFE
S11311D013DC5A1C0192002E28D1019A02339B0081
S11311E042601F50286800F085F8002003B03CBC22
S11311F090469946A246AB46F0BD254B002B3DD008
S1131200C820400000E000BF002837D0A4220023FB
S11312105200A15843600160A05040328350043210
S11312208350013301930023002ED6D09A009246B6
S113123082444A46882154466250C4225200914650
S113124081444A468739994012688B460A4394463A
S11312504A4661461160842241465200A150022E42
S1131260BBD102005C468D32FF3211680C4314601E
S1131270B3E720004D30FF30E050A7E7286800F0C6
S113128039F801204042B1E738040020F812000088
S113129000000000034B10B5002B02D0024800F000
S11312A005F810BD00000000BD12000010B50100DB
S11312B0002300220020FFF773FF10BD70B5094B17
S11312C0094CE41AA41009D0084AA518AD00ED1879
S11312D02B68013C9847043D002CF9D100F01AF822
S11312E070BDC0462013000024130000FFFFFF3F21
S11312F07047C0467047C04610000020F8B5C0468D
S1131300F8BC08BC9E46704795120000B50000006A
S1131310CD040000F8B5C046F8BC08BC9E46704732
S10713208D00000038
S10B13243CFCFF7F0100000006
S113132C000000000100000040420F00000000001B
S113133C00000000FC02002064030020CC03002009
S113134C000000000000000000000000000000008D
S113135C000000000000000000000000000000007D
S113136C000000000000000000000000000000006D
S113137C000000000000000000000000000000005D
S113138C000000000000000000000000000000004D
S113139C000000000000000000000000000000003D
S11313AC000000000000000000000000000000002D
S11313BC000000000000000000000000000000001D
S11313CC000000000000000000000000000000000D
S11313DC00000000000000000100000000000000FC
S11313EC0E33CDAB34126DE6ECDE05000B000000C1
S11313FC00000000000000000000000000000000DD
S113140C00000000000000000000000000000000CC
S113141C00000000000000000000000000000000BC
S113142C00000000000000000000000000000000AC
S10F175C000000000000000064050020F4
S9030000FC
