S01100004D696E69436C69636B2E73726563A0
S1130000A809002045150000411500004115000015
S113001000000000000000000000000000000000DC
S11300200000000000000000000000004115000076
S11300300000000000000000411500004115000010
S11300404115000041150000E90A000041150000B7
S1130050F10C0000411500004115000000000000F3
S113006041150000D10C0000E10C0000000000006C
S113007000000000690B0000790B0000411500002E
S113008000000000000000004115000010B5064CFF
S11300902378002B07D1054B002B02D0044800E045
S11300A000BF0123237010BD4404002000000000A1
S11300B0501B0000084B10B5002B03D0074908481B
S11300C000E000BF07480368002B00D110BD064BB9
S11300D0002BFBD09847F9E70000000048040020FB
S11300E0501B0000501B0000000000000368DB6987
S11300F09B07FBD170470000F0B583B004001A4998
S11301004B681A780F2313406A46D37101230B807E
S1130110D379DBB2002B07D0012B16D01249200073
S1130120124B984703B0F0BD6B46DE1DDD79EDB28E
S11301300D4F380008300E4B98477D1928763278D9
S11301403B0018339B187B60E8E76B46DF1DD979C9
S1130150054E35001835691830000830054B9847AE
S11301603B78ED187560D9E7600400208F07000024
S1130170450A0000B90A000010B5044901230B80A8
S11301800B0024334B60024B984710BD60040020E1
S11301906707000010B5012800D010BD074B994235
S11301A0FBD1074C08340A212000064B9847064A25
S11301B006492000064B9847EFE7C046FFFF0000C2
S11301C060040020390A000000000020430A0000F7
S11301D02516000030B5C4B2E3096409002B08DD1C
S11301E000240123834018008A184D1C09788023B9
S11301F01BE0E4011F4B9C466444F2E76061C04687
S1130200C046C046C046C046C046C046C046C046BA
S1130210C046C046C046C046C046C046C0461EE0B2
S1130220954226D2297801358023A061C046C04674
S1130230C046C046C046C0460B42DFD0C046C0469A
S1130240C046C046C046C046C046C046C046C0467A
S1130250C046C046C046C046C046C04660615B0852
S1130260DED0C046C046C046C046C046C046C046B2
S1130270DBE730BD0044004130B58DB002AA002157
S1130280117080239B03536001235B42138100237D
S11302905181D181137453745161137653769376DB
S11302A0D1611162243153540131535401315354F7
S11302B0122393810D4C250028350D4928000D4B40
S11302C098476B46D871A46A20000B4B98471F23AC
S11302D018401E3B8340094A13602800084B984786
S11302E023680222134323600DB030BD6004002054
S11302F000080042BD050000B50C000000E100E06C
S1130300ED000000F8B50E4C02220E490E480F4DC8
S1130310A84726004D36337804221343DBB23370EA
S11303200227A36A9F75032209490748A84733781F
S113033008221343DBB23370A36A9F75F8BDC0462D
S113034060040020F9000000880400204D0700002C
S11303507901000070B582B001AC0023237001263E
S11303606670A37021001020094DA84721001120B8
S1130370A84721001620A84721001720A847267067
S113038021001B20A84721000A20A84702B070BD05
S1130390850D000030B583B001AC002363700122E9
S11303A0A270E3700233237021000E20034DA8478E
S11303B021000F20A84703B030BDC046111500002E
S11303C010B582B06C4B98476C4B98476C4B984770
S11303D06C4B98476C4B98476C4B98476C4B9847C1
S11303E001AB6C4A1188198092789A704AE0812195
S11303F010000830684B984780221205674B9A61B9
S11304006AE0822166480830634B984780221205CF
S1130410624B9A616AE08321614808305E4B9847D9
S1130420802212055D4B9A616AE084215C480830A1
S1130430594B984780221205584B9A616AE0412132
S113044010000830544B984780221205534B5A61D0
S113045069E04221524808304F4B984780221205E8
S11304604E4B5A6169E043214D4808304A4B984746
S113047080221205494B5A6169E0032201A90A202E
S1130480484B984746490B6ECB654448036A802223
S1130490520213405A1E9341DBB260228B54026A0B
S11304A08024A4022240541EA24160314A70026A90
S11304B08024E4032240541EA2418A70026A8020F0
S11304C000040240501E8241CA70002B04D15C33E8
S11304D0334AD35C002B8AD1314B60335B78002BD9
S11304E004D12F4B5C335B78002B8AD12C4B6033C7
S11304F09B78002B04D12A4B5C339B78002B8AD148
S1130500274B6033DB78002B04D1254B5C33DB783D
S1130510002B8AD16023224AD35C002B03D05C23B6
S1130520D35C002B8BD01E4B60335B78002B04D044
S11305301B4B5C335B78002B8BD0194B60339B785F
S1130540002B04D0164B5C339B78002B8BD0144BC0
S11305506033DB78002B90D0114B5C33DB78002BBD
S11305608BD144210E4808300B4B9847802212054A
S11305700A4B5A6181E7C046151600008D10000031
S1130580450D0000550300009503000079020000AA
S113059005030000D01A00008D0A00000044004149
S11305A060040020D501000010B502490120024B6F
S11305B0984710BDFFFF000095010000F0B5CE463E
S11305C0474680B583B005000C00160029600B680F
S11305D01C209B0704D503B00CBC90469946F0BD83
S11305E00B681738DB07F6D408004D4B994698473B
S11305F04C4A116A831C0127B8469F403B000B43B9
S1130600136201A9737E0B700E30C3B21F00180071
S1130610454B98473800454B9847707E0021444B22
S113062098472868C84707004249434B9847BF008A
S1130630424BFD5000232422AB540132AB54EB84D3
S1130640337E6B72102323602C683389EB80337CF8
S11306502B7280236A461370002353706B46424604
S11306609A7000236A46D370F069356A00284BD02B
S11306706B46187002236A465370000CC0B2694678
S11306802F4B9847002D44D06B461D7002236A46B9
S113069053702D0CE8B26946294B9847B37E8022EB
S11306A0002B04D1274B9B789B07DB0FDA01252312
S11306B0F35C002B04D180239B047169994202D11D
S11306C080231B051A432068736871690B43242136
S11306D0715C89070B432621715CC9050B430343F5
S11306E013432360728980235B0013436360B389DF
S11306F05B00F28952041343727C1343327CD203AD
S113070013436362002066E7002120000E4B9847E4
S1130710AEE7012120000C4B98470500B4E7C04622
S1130720550C000000040040191400008D13000053
S1130730890B0000B90700007D0C0000780500203B
S11307401115000000200041D50B000010B5931CCA
S11307509B00C31859602424035D012191400B437D
S1130760DBB2035510BD028D0523002A01D0180009
S113077070474B68C3620B8803850B88C3840532BA
S11307803123C254036802329A750023EFE7028DC5
S11307900523002A01D0180070474B68C3620B88F8
S11307A003850B88C38405323123C25403680232A3
S11307B09A750023EFE7000070B580009B4BC45886
S11307C025682523E35C2422A65C1E402B7E9B0720
S11307D000D495E0E38C9BB2228D93420DD030235C
S11307E0E35C002B09D13122A354E3842385B307AE
S11307F00BD523692000984707E0E38C9BB29A420B
S113080003D03023E35C012B22D06A8B43231A42AA
S113081004D01022123BE254B30624D4637A002B92
S113082025D16B8B1B074AD501223023E254730771
S113083038D4E38C9BB2002B38D125687C4B984785
S113084000236B838023DB026B607A4B984718E0AC
S113085000233122A354E3842385F307D5D5E36829
S113086020009847D1E7236A20009847D6E72568F7
S11308706F4B984700236B838023DB026B606D4BC7
S1130880984723681A7ED20701D501221A760222DC
S11308901A762468664B9847002363836360654B2C
S11308A0984770BD636920009847C2E72568604B8C
S11308B0984700236B836B605E4B9847E1E7002207
S11308C03023E25433070ED4E38C9BB2002B0ED1B9
S11308D02568574B984700236B838023DB026B60AA
S11308E0544B9847CDE7A36920009847ECE7256867
S11308F04F4B984700236B836B604E4B9847C0E780
S11309002B7EDB072ED501232B7604332B75203366
S1130910E35C5B0705D42523E35C1B0701D40223B6
S11309202B753123E35C1E2BBBD03123E35C102BEE
S1130930B7D000233122A354E3842385B30703D51E
S11309403023E35C002B09D0F307AAD53023E35C02
S1130950012BA6D1E36820009847A2E72369200071
S113096098479EE72B7E5B079BD5238D002B1ED0DB
S11309703022A25C012A13D0E38C9BB2002B00D15D
S11309808FE73023E35C002B44D0E36A5A1CE26215
S11309901B78DBB22822AB54238D013B238580E7EF
S11309A0E28C92B29342E7D26B8B5B07E4D50023CF
S11309B02385E3843033E35C002B17D11C4B984729
S11309C000236B838023DB026B601A4B98476A68B1
S11309D080239B0213436B601E223123E254F306EF
S11309E000D45EE7E369200098475AE7104B984724
S11309F000236B838023DB026B600E4B98476A688D
S1130A0080239B0213436B6031230022E2542D3B6D
S1130A102B7546E7E26A531CE3622823EB5CDBB2E6
S1130A201370238D013B23853BE7C04678050020E6
S1130A30A90D0000E90D000081720023C372037345
S1130A4070477047037BC17A8B4205DA827A5B1A5E
S1130A50D8B21018C0B270475B1AD8B2FBE7C37A99
S1130A60007BC01A43425841C0B2704710B504001D
S1130A70007B0130A17A044B9847E07A401A414246
S1130A804841C0B210BDC0461519000070B504003D
S1130A900D00074B9847002808D1207B25540130CE
S1130AA0A17A044B98472173012070BD0020FCE714
S1130AB06D0A00001519000070B504000D00084B04
S1130AC0984700280AD1E37AE35C2B70E07A01307E
S1130AD0A17A044B9847E172012070BD0020FCE725
S1130AE05F0A00001519000010B50122034B9A712A
S1130AF0034B1B68002B00D0984710BD001000402A
S1130B006C05002070B58000164BC45823689D7B8B
S1130B10227E637E13401D40EB0706D4AB070BD443
S1130B20EB0610D4AB0615D470BD2000A36898471B
S1130B30012322689373F1E72000E36898470223B6
S1130B4022689373ECE720002369984710232268F6
S1130B509373E7E7200063699847236820229A7318
S1130B60E2E7C0467005002010B50020014B98470D
S1130B7010BDC046050B000010B50120014B98477D
S1130B8010BDC046050B000010B582B004000E4B2A
S1130B901B78002B07D0002905D10B4B5B788342CF
S1130BA010D01D200CE001A90C700D20074B9847B4
S1130BB00D20074B9847044B5C7001221A700020EB
S1130BC002B010BD0020FBE700050020191400004E
S1130BD08D130000154B984204D0154B984211D048
S1130BE000207047012907D000291BD0022905D015
S1130BF0032905D00020F4E70E48F2E70E48F0E799
S1130C000E48EEE7012907D000290DD0022905D0AE
S1130C10032905D00020E4E70948E2E70948E0E7B2
S1130C200948DEE70948DCE70948DAE7000800423A
S1130C30000C004203000500030008000300090043
S1130C4002001F0002001800020019000300040043
S1130C5002001E00064B984208D0064A0023904228
S1130C6001D0180070470133DBB2FAE70023FBE739
S1130C7000080042000C00427047000030B5094BE8
S1130C801B78002B0AD1084C084D2560084B002224
S1130C901A6065605A600132024B1A708000024B80
S1130CA0C15030BD0205002004050020790C00006D
S1130CB07805002010B582B001AC092323700133FC
S1130CC06370024B9847205602B010BD550C0000CB
S1130CD010B5024B1B680020984710BD0405002086
S1130CE010B5024B5B680120984710BD0405002035
S1130CF070B50022104B1A70002310491F25104EA6
S1130D000D4C0AE00D4908E023780133DBB223706F
S1130D100F2B10D800211F2BF4D9280018400122D2
S1130D20824008691042EFD00A619B009B59002B56
S1130D30EAD09847E8E770BD80050020001800401D
S1130D402C05002070B50020084B98470500084C7E
S1130D50FA218900A047074B186007492800A047DB
S1130D60064B18600522064B1A6070BD0113000083
S1130D70351600000400002040420F000800002047
S1130D8010E000E000B583B001AB80221A700A784D
S1130D905A704A789A708A78DA701900014B984729
S1130DA003B000BD111500000C4B1B68002B06D1CD
S1130DB0EFF31083002B07D00022094B1A70074A67
S1130DC0136801331360704772B6BFF35F8F00225C
S1130DD0044B1A700132024B1A70F0E70C05002024
S1130DE0100500200C000020084B1A68013A1A6014
S1130DF01B68002B09D1064B1B78002B05D0012260
S1130E00044B1A70BFF35F8F62B670470C05002065
S1130E10100500200C00002010B5082803D880001D
S1130E201C4B1B589F46002032E01B4B18692FE0D7
S1130E301A4B1B6A9B059B0F1948D84028E0164B98
S1130E40586925E0144B1B6800209B0720D51349E3
S1130E501022CB681A42FCD00F4B1A68242313408B
S1130E60042B01D00F4813E000200F4B98470A4B86
S1130E709B681B041B0C58430AE05023074AD35CAD
S1130E8000205B0704D5044BD86801E080200002F1
S1130E9010BDC046D41A000014050020000800400C
S1130EA000127A00006CDC023514000070B50C49A5
S1130EB00B6A04788578407801221040800140262E
S1130EC0B34303432A40D2018020834313430322C4
S1130ED0224012020348034013430B6270BDC04614
S1130EE000080040FFFCFFFFF0B5CE46474680B542
S1130EF0194B99469B6941788C4605780679C778E1
S1130F0044798078012108408000042293430343FC
S1130F1060460840C000043293430343380008404D
S1130F2080014027BB43034330000840C0018026B2
S1130F30B3430343072005402D02084803402B43D5
S1130F4021400903064803400B434A4693610CBC05
S1130F5090469946F0BDC04600080040FFF8FFFFE8
S1130F60FFEFFFFF10B5037A9B061B0C4289920525
S1130F70920D134318494B608379C2791343428815
S1130F808488224313434278D20113430B600378CD
S1130F90042B11D0202B0ED1037B9B06028A134312
S1130FA0C28912040D490A4013430B4A9360116825
S1130FB00B4B0B43136010BD037B9B06028A134348
S1130FC0C289120405490A401343034A9360136813
S1130FD004210B431360EEE7140500200000FF0317
S1130FE024040000082803D88000254B1B589F4682
S1130FF0172044E0234A136A02210B4313620020A2
S11310003DE0204A936902210B439361002036E0BE
S11310101C4A138A02210B43138200202FE0194A31
S1131020938A02210B439382002028E016490B681F
S1131030022213430B60134B9A8419000E32CB68BF
S11310401A42FCD0104A91680E4BD96252689A62D7
S113105000229A8419001032CB681A42FCD00A4B41
S11310601B689BB2074A9384002008E00549442288
S11310708B5C022003438B54002000E00020704767
S1131080F81A00000008004014050020F0B58DB0E7
S1131090C222D200444B9A6044494B681E229343B7
S11310A01C3A13434B6001AB1A700024404DE0B26C
S11310B001A9A8470134182CF9D13E4D2B68DB0453
S11310C039498A695B0E1B043B48024013438B6118
S11310D00AA8012383700024C4700371447105338A
S11310E003704470354B98470420354B984705AB43
S11310F000225C809C809A71DA713F2159813B39CE
S113110019705A702B689B0E3F2B4BD005A80372A5
S1131110B723DB000382072303733833C381294BCE
S1131120984704A800254570012686700570264B53
S113113098470620224FB847244B984701AC0296A3
S11311406570257265720423237021000120204BF1
S1131150984701201F4B9847267021000020144B0C
S1131160984700201C4B98470720B8470E49D022C7
S1131170CB681340D02BFBD1184A0023137253724F
S11311809372D37201A901224A604B700B724B72A5
S113119007330B7000200E4B984700200D4B9847E7
S11311A00DB0F0BD203BB1E7000800400040004115
S11311B01914000024608000FFFF80FFE90E000086
S11311C0E50F0000650F0000AD0E0000E111000006
S11311D005120000BD1200008D1300000004004041
S11311E0064A936908210B4393610122044B1A7048
S11311F019000B781342FCD17047C046000400402C
S1131200000C004070B5060004000D782D02054363
S11312104B78002B02D08023DB021D434B7A002B3A
S113122002D080231B031D434868012810D9431EA4
S1131230184234D1022830D90223002201325B0043
S11312409842FBD812023243140080235B031D43EF
S11312500B7A002B02D080239B031D43134A53783F
S11312605BB2002BFBDB124B9847124B1E700F4AEC
S113127053785BB2002BFBDB0C4B9C601A00537859
S11312805BB2002BFBDB094A5368802149020B4007
S11312901D435560084B984770BD0022D2E70402F5
S11312A0344380239B021D43D2E7C046000C004018
S11312B0A90D0000080C0040E90D000010B5040061
S11312C00B4A53785BB2002BFBDB0A4B98470A4B63
S11312D01C70074A53785BB2002BFBDB044A51684D
S11312E080235B020B435360044B984710BDC046F8
S11312F0000C0040A90D0000040C0040E90D0000A2
S113130070B504001A4A53785BB2002BFBDB194B0F
S11313109847194B1C70164A53785BB2002BFBDBC1
S1131320134E7068C004C00E144B98470500124B4E
S11313301C707668F602F60F114B1C700C4A537839
S11313405BB2002BFBDB0A4B9C682402240C0D4B84
S11313509847002E07D1012C07D9210028000A4BF9
S11313609847050001E00134E540280070BDC046FF
S1131370000C0040A90D0000040C0040190E0000F0
S1131380080C0040E90D00003516000010B50400FB
S1131390064B9847064B1C70064A53888021C901A6
S11313A00B435380044B984710BDC046A90D000061
S11313B0020C0040000C0040E90D000010B50400D0
S11313C00F4B98470F4B1C700F4A53881B05180F7F
S11313D053880E490B40538053880D490B4053806A
S11313E011008022D2014B881342FCD106494A885D
S11313F003020648024013434B80064B984710BD36
S1131400A90D0000020C0040000C0040FFF0FFFF9B
S1131410FFBFFFFFE90D000010B50C782402044360
S1131420024B9847A4B2024B5C8010BDBD13000070
S1131430000C004010B50400064B9847064B1C7086
S1131440064B5C882405240F054B98472000054B68
S1131450984710BDA90D0000020C0040000C00408C
S1131460E90D00000113000030B5D378002B35D10D
S11314701378802B29D01B068024640223435478DC
S11314800225AC4306D19478002C20D18024A402F8
S1131490234341605478013C012C1CD90D042D0CCC
S11314A0A024E4052C431C4384620D0CD0242406A0
S11314B02C431C438462D478002C22D15B031CD5BA
S11314C09378012B1ED0416117E00023D7E7C02495
S11314D0E4022343DDE70D4C2340DFE741600C04C5
S11314E0240CA023DB05234383620C0CD0231B06AE
S11314F023438362D378002B03D15378013B012B20
S113150002D930BD8161F8E78160FAE7FFFFFBFF94
S113151010B50A00C1090023002904D14309DB01E5
S113152005498C4663441F24204001218140180052
S1131530024B984710BDC0460044004169140000A6
S1131540FEE7000010B5264A264B9A4211D01A0035
S1131550254B9A420DD2254A03339B1A9B0801332B
S11315609B0000221F481E498C58845004329A4222
S1131570FAD11F4A1F4B9A420AD2D3431D495B1822
S113158003218B4304339B18002102C29342FCD1F4
S1131590194AFF21194B8B439360FD3990235B005B
S11315A0174AD150174B9A7B2E318A4320210A4384
S11315B09A739A7B0C218A4308210A439A739A7B73
S11315C003218A4302210A439A730F4A53688021F4
S11315D00B4353600D4B98470D4B9847FEE7C046AD
S11315E0501B0000000000204404002004000020E0
S11315F044040020A805002000ED00E000000000E5
S113160000700041004800410040004131190000D1
S1131610C1030000014A024B1A60704740420F00A8
S1131620100000200B0010B50100180000F078F93C
S113163010BDC046002243088B4274D303098B4279
S11316405FD3030A8B4244D3030B8B4228D3030C8E
S11316508B420DD3FF22090212BA030C8B4202D330
S11316601212090265D0030B8B4219D300E0090A58
S1131670C30B8B4201D3CB03C01A5241830B8B4261
S113168001D38B03C01A5241430B8B4201D34B034A
S1131690C01A5241030B8B4201D30B03C01A5241AF
S11316A0C30A8B4201D3CB02C01A5241830A8B4234
S11316B001D38B02C01A5241430A8B4201D34B021D
S11316C0C01A5241030A8B4201D30B02C01A524181
S11316D0CDD2C3098B4201D3CB01C01A5241830935
S11316E08B4201D38B01C01A524143098B4201D36F
S11316F04B01C01A524103098B4201D30B01C01A9A
S11317005241C3088B4201D3CB00C01A5241830813
S11317108B4201D38B00C01A524143088B4201D340
S11317204B00C01A5241411A00D2014652411046A0
S11317307047FFE701B5002000F0F0F802BDC04695
S11317400029F7D076E7704703460B437FD4002285
S113175043088B4274D303098B425FD3030A8B4241
S113176044D3030B8B4228D3030C8B420DD3FF22AB
S1131770090212BA030C8B4202D31212090265D079
S1131780030B8B4219D300E0090AC30B8B4201D32C
S1131790CB03C01A5241830B8B4201D38B03C01A73
S11317A05241430B8B4201D34B03C01A5241030BEA
S11317B08B4201D30B03C01A5241C30A8B4201D39B
S11317C0CB02C01A5241830A8B4201D38B02C01A46
S11317D05241430A8B4201D34B02C01A5241030ABD
S11317E08B4201D30B02C01A5241CDD2C3098B42A2
S11317F001D3CB01C01A524183098B4201D38B011F
S1131800C01A524143098B4201D34B01C01A5241C1
S113181003098B4201D30B01C01A5241C3088B4206
S113182001D3CB00C01A524183088B4201D38B00F1
S1131830C01A524143088B4201D34B00C01A524193
S1131840411A00D201465241104670475DE0CA0F6A
S113185000D04942031000D34042534000229C462A
S113186003098B422DD3030A8B4212D3FC22890134
S113187012BA030A8B420CD3890192118B4208D30A
S1131880890192118B4204D389013AD0921100E06C
S11318908909C3098B4201D3CB01C01A5241830980
S11318A08B4201D38B01C01A524143098B4201D3AD
S11318B04B01C01A524103098B4201D30B01C01AD8
S11318C05241C3088B4201D3CB00C01A5241830852
S11318D08B4201D38B00C01A5241D9D243088B42A8
S11318E001D34B00C01A5241411A00D2014663464B
S11318F052415B10104601D34042002B00D54942AF
S1131900704763465B1000D3404201B5002000F0ED
S113191005F802BD0029F8D016E770477047C046A5
S113192010B513000A000100022000F025F810BDD4
S113193070B50D4E0D4D0024AD1BAD1005D0A300A8
S1131940F35801349847A542F9D100F0E9F8084E5C
S1131950084D0024AD1BAD1005D0A300F35801348D
S11319609847A542F9D170BD2C1B00002C1B000028
S11319702C1B0000381B0000F0B54E464546DE46E1
S11319805746E0B5364D83B00600286898460F00E8
S1131990914600F099F8334B1C68A4235B00E0588F
S11319A0002852D043681F2B13DC5A1C0192002ECE
S11319B028D1019A02339B0042601F50286800F02E
S11319C085F8002003B03CBC90469946A246AB463D
S11319D0F0BD254B002B3DD0C820400000E000BFE7
S11319E0002837D0A42200235200A158436001608C
S11319F0A0504032835004328350013301930023BA
S1131A00002ED6D09A00924682444A4688215446F3
S1131A106250C4225200914681444A468739994013
S1131A2012688B460A4394464A46614611608422F2
S1131A3041465200A150022EBBD102005C468D32B9
S1131A40FF3211680C431460B3E720004D30FF30BF
S1131A50E050A7E7286800F039F801204042B1E7D8
S1131A60400400201C1B000000000000034B10B5C4
S1131A70002B02D0024800F005F810BD0000000061
S1131A80951A000010B50100002300220020FFF782
S1131A9073FF10BD70B5094B094CE41AA41009D0AA
S1131AA0084AA518AD00ED182B68013C9847043D81
S1131AB0002CF9D100F040F870BDC046441B000072
S1131AC0481B0000FFFFFF3F7047C0467047C046F9
S1131AD0FF000F002A0E0000260E0000260E000054
S1131AE08C0E00008C0E00003E0E0000300E000034
S1131AF0440E00007A0E000010100000F00F0000E9
S1131B00F00F00007C100000021000001E10000006
S1131B10F40F00002C1000006C10000018000020CE
S1131B20F8B5C046F8BC08BC9E4670476D1A000064
S1131B30B5000000A9050000F8B5C046F8BC08BC13
S10B1B409E4670478D00000071
S10B1B48DCFAFF7F010000003C
S1131B5000000000401F0000080000000100000019
S1131B6040420F00000000000000000004030020B9
S1131B706C030020D40300200000000000000000DB
S1131B800000000000000000000000000000000051
S1131B900000000000000000000000000000000041
S1131BA00000000000000000000000000000000031
S1131BB00000000000000000000000000000000021
S1131BC00000000000000000000000000000000011
S1131BD00000000000000000000000000000000001
S1131BE000000000000000000000000000000000F1
S1131BF000000000000000000000000000000000E1
S1131C0000000000000000000000000000000000D0
S1131C1001000000000000000E33CDAB34126DE66D
S1131C20ECDE05000B0000000000000000000000D6
S1131C3000000000000000000000000000000000A0
S1131C400000000000000000000000000000000090
S1131C500000000000000000000000000000000080
S1131C600000000000000000000000000000000070
S1071F9084050020A0
S9030000FC
