S01100004D696E69436C69636B2E73726563A0
S1130000300500209D0C0000990C0000990C0000A4
S113001000000000000000000000000000000000DC
S1130020000000000000000000000000990C000027
S11300300000000000000000990C0000990C000072
S1130040990C0000990C000095080000990C000020
S1130050810A0000990C0000990C000000000000C7
S1130060990C0000610A0000710A00000000000001
S1130070000000000D0900001D090000990C00009B
S11300800000000000000000990C000010B5064CB0
S11300902378002B07D1054B002B02D0044800E045
S11300A000BF0123237010BD0C00002000000000DD
S11300B0EC0F0000084B10B5002B03D0074908488B
S11300C000E000BF07480368002B00D110BD064BB9
S11300D0002BFBD09847F9E7000000001000002037
S11300E0EC0F0000EC0F000000000000F7B50F2239
S11300F0164C070063681B7813406A46D51D2B70A5
S1130100012323802B78DBB2002B06D0012B11D0E6
S1130110380021000E4B9847F7BD20000D4B0830E6
S11301202E78984723002A781533F6B298559B18F1
S11301306360EDE726002000297815367118064B18
S1130140083098472B78F6186660E1E7280000200D
S1130150E9050000090800006D08000001230449B6
S113016010B50B800B001F334B60024B984710BD3A
S11301702800002011060000802130B58DB002AAAD
S11301808903516001210023494211810E316944E0
S1130190CB770E216944CB77164D0F212800694493
S11301A013705381D381137453745361137653764C
S11301B09376D3611362CB77123393810E490F4B3D
S11301C0243098476B466C6AD8710D4B20009847D1
S11301D01F2318401E3B83400A4A696A13600323A5
S11301E0CA691A42FCD102232268134323600DB06A
S11301F030BDC04628000020000800422904000049
S1130200490A000000E100E0F8B50E4C0E4E27004C
S113021025002437380002220C49B047042349350D
S11302202A783800134302222B70636A08499A75AE
S11302300322B04708232A78134302222B70636AEF
S11302409A75F8BD28000020D1050000ED000000DB
S11302505D01000037B50023012201AC084D2100E7
S1130260102023706270A370A84721001120A847B2
S113027021001620A84721001720A84737BDC046F3
S1130280C10A0000002337B5012201AC064D63709A
S1130290E370210002330E20A2702370A8472100CE
S11302A00F20A84737BDC0466D0C0000F8B5494B78
S11302B09847494B9847494B9847494B9847494B6E
S11302C09847494C25005C352700260058375C3692
S11302D004223100454B380098478022444B520297
S11302E0196A11400A00501E8241012032701A6AB4
S11302F0520C024072701A6A920D0240B2701B6A6C
S1130300DB0D0340F370002907D13B78002B04D0A8
S1130310200081310830374B98476B78002B09D186
S1130320230058335B78002B04D02000822108304E
S1130330304B9847AB78002B09D1230058339B7876
S1130340002B04D02000832108302A4B9847EB78F7
S1130350002B09D123005833DB78002B04D0200074
S113036084210830234B98472B78002B09D0230095
S113037058331B78002B04D12000412108301D4B39
S113038098476B78002B09D0230058335B78002BF7
S113039004D1200042210830164B9847AB78002B3B
S11303A009D0230058339B78002B04D1200043212B
S11303B00830104B9847EB78002B85D02300583336
S11303C0DB78002B80D1200044210A4B0830984769
S11303D07AE7C046450D0000550200008502000082
S11303E0790100000902000028000020B50F000078
S11303F0004400414108000010B5064C0A210834AD
S11304002000054B9847054A05492000054B9847AD
S113041010BDC04628000020FD0700000000002099
S113042007080000550D0000F0B5040021600B68BA
S113043085B00E0017001C209B0700D59BE001220D
S11304400B6817381A40019200D094E008004B4B17
S113045098470125831C9D402B00494A0E30116AA0
S1130460C5B20B4313627B7E02AA137011002800ED
S1130470444B98472800444B98470199434B787E56
S1130480984720683D4B9847414B4249050098479F
S11304906A46414BAD001279EC50631DDA776A4627
S11304A01279A31DDA776B469B88E3843B7E6372E3
S11304B0102333603B892668E3803B7C23728023CE
S11304C003AC23700123F8696270A370E2703D6A83
S11304D0002803D10100314B3000984702232070DB
S11304E0000C6370C0B221002D4B9847002D04D13D
S11304F001213000294B98470500022325702D0C5B
S11305006370E8B2264B21009847BB7E8022002B03
S113051006D1244B7E3A9B7813405A1E9341DA014C
S1130520BB1DD97F7B69002903D1802189048B42BB
S113053002D1802109050A43796830680B43791D8B
S1130540C97F89070B43F91DC97FC9050B430343C1
S113055013433360802300207A895B001343736064
S1130560BB89FA895B00520413437A7C13433A7CB7
S1130570D2031343736205B0F0BDC046ED09000019
S113058000040040CD0B0000450B00002D090000C5
S1130590150A00001D060000240100207109000056
S11305A06D0C00000020004170B5074B04680D007D
S11305B09847002363839D4203D06360034B9847AD
S11305C070BD8023DB02F8E7E10A0000150B000090
S11305D0931C9B00C3185960012393400530C17FCD
S11305E00B43DBB2C377704710B5028D03000520BF
S11305F0002A0CD14C68DC620C881C850988D984DB
S1130600190031310870072110001B68997510BD5D
S113061010B5014B984710BDE9050000F7B5754BBF
S11306208000C458611DA31DDA7FCE7F2568164063
S11306300222297E11425ED0E38C218D8B4240D070
S1130640230030331B78DBB2002B3AD12100313147
S11306500B70E3842385164202D023692000984757
S113066043236A8B1A4208D02300102231331A70B4
S1130670B30602D5236A20009847637A5E4F0021AF
S1130680002B10D1082221006B8B303113402BD06A
S113069001230B70730702D5636920009847E18C2E
S11306A089B2002925D12000B84723681A7ED207D1
S11306B001D501221A76022201211A762000B847B8
S11306C0F7BDE38C9942CBD0230030331B78DBB2E7
S11306D0012BC5D12100002231310A70E284228528
S11306E01E42BDD0E368B9E70B701642D7D0A369A8
S11306F0D3E70121D7E70121287E084229D02976B2
S113070004312975D97F490703D4DB7F1B0700D443
S11307102A752200313213781E2BD1D01378102B76
S1130720CED000231370E3842385B30708D52300B8
S113073030331B78002B03D1236920009847BFE78F
S1130740F307BDD5230030331B78012BB8D1E36800
S1130750F3E704222B7E1342B2D02300218D3033E1
S1130760002908D0187801282CD1E08C814229D2A4
S1130770698B114226D000272785E7841978230046
S1130780C9B2313301931C4BB9420ED120009847B2
S113079080226B68920213436B601E23019A1370CC
S11307A0F30600D48CE7E369C7E7390020009847D3
S11307B080226B68920213436B60019B1F700423B9
S11307C02B757DE7E28C002A00D179E71A78283569
S11307D0E36A002A08D15A1CE2622A78D2B21A705B
S11307E0238D013B23856BE75A1CE2621B78DBB245
S11307F02B70F5E724010020A90500000023817275
S1130800C372037370477047037BC27A934202DB5F
S1130810981AC0B27047807A1818801AF9E7000055
S113082010B50400007BA17A044B01309847E07AAC
S1130830081A41424841C0B210BDC046450F0000ED
S113084070B5084B04000D0098470023984207D167
S1130850207B054B2554A17A01309847012321734D
S1130860180070BD21080000450F000010B5C37AC0
S1130870027B040000209A4208D0E35C0B70E07A0B
S1130880A17A0130024B98470120E17210BDC046A5
S1130890450F0000012210B5034B9A71034B1B68EE
S11308A0002B00D0984710BD001000401801002014
S11308B070B50126144B8000C4582368227E657EDF
S11308C09B7B15401D40354204D0A3682000984707
S11308D023689E730226354204D0E36820009847BB
S11308E023689E731026354204D02369200098475C
S11308F023689E732026354204D0636920009847FC
S113090023689E7370BDC0461C01002010B50020F2
S1130910014B984710BDC046B108000010B5012036
S1130920014B984710BDC046B108000037B50D4CC7
S113093005002378002B01D000290CD001A90D203B
S1130940094B0D7098470D20084B98470123002050
S1130950657023703EBD63780800AB42FAD01D2059
S1130960F8E7C046C4000020CD0B0000450B000092
S1130970144B00B5984204D0134B98420FD000207A
S113098008E00020032905D8080000F0EBF916025E
S113099004060E4800BD0E48FCE70E48FAE70020A6
S11309A00329F7D8080000F0DDF90A0204060A4812
S11309B0F0E70A48EEE70A48ECE70A48EAE70A489B
S11309C0E8E7C04600080042000C004203000500AE
S11309D0030008000300090002001F0002001800C1
S11309E0020019000300040002001E00064B984296
S11309F007D0064A0023904201D10133DBB218002C
S1130A0070470023FAE7C04600080042000C004289
S1130A107047000070B5084C084B2278002A07D1B3
S1130A20074D084E2A606A6001321E605E602270C3
S1130A308000195070BDC046C6000020C8000020C8
S1130A4024010020110A0000092313B501AC23700E
S1130A5001336370014B9847205616BDED09000021
S1130A6010B5024B00201B68984710BDC800002039
S1130A7010B5024B01205B68984710BDC8000020E8
S1130A80002370B501250B4C237023780F2B00D95C
S1130A9070BD29009940084A1069084206D01161C6
S1130AA0064A9B009B58002B00D0984723780133BB
S1130AB02370EAE72C01002000180040D800002031
S1130AC007B5802201AB1A700A785A704A789A7076
S1130AD08A781900DA70014B984707BD6D0C000045
S1130AE0094B196800290BD1EFF31080074A00283D
S1130AF005D172B6BFF35F8F0549087001211170EB
S1130B001A6801321A607047D0000020D400002017
S1130B1004000020084B1A68013A1A601B68002B75
S1130B2009D1064B1B78002B05D00122044B1A7007
S1130B30BFF35F8F62B67047D0000020D40000205E
S1130B400400002010B50400064B9847064B074AE2
S1130B501C7080235188DB010B435380044B98475E
S1130B6010BDC046E10A0000020C0040000C004029
S1130B70150B000010B504000E4B98470E4B0F4A9E
S1130B801C700F4B0F4C5888598800051140598030
S1130B905988000F2140598011008022D2015C88BD
S1130BA01442FCD15A8800020A4002435A80064B80
S1130BB0984710BDE10A0000020C0040FFF0FFFF5F
S1130BC0000C0040FFBFFFFF150B000010B50C78B0
S1130BD0034B240204439847024BA4B25C8010BD2B
S1130BE0750B0000000C0040D37830B5002B35D1D4
S1130BF01478802C03D0802324065B02234302252F
S1130C005478AC4306D19478002C24D18024A402D7
S1130C10234341605478013C012C01D8124C2340F9
S1130C20A0248DB2E4052C431C438462D0240D0C13
S1130C3024062C431C438462D478002C0AD15B0321
S1130C4003D59378012B0CD181615378013B012B9F
S1130C5000D8816030BDC024E402D9E7416000239C
S1130C60DEE74161F1E7C046FFFFFBFF10B503007B
S1130C700A004409C1090020814202D10449E0016B
S1130C8040181F210B401E399940024B984710BD54
S1130C9000440041E90B0000FEE700001D481E4926
S1130CA070B5884204D000231C4CCA18A2422AD32F
S1130CB000211B4B1B4A934229D3FF211A4B1B4A89
S1130CC08B43936002223020194B5A62194B997B53
S1130CD081430800202101430C209973997B8143AF
S1130CE008000821014303209973997B81430A4337
S1130CF09A738023104A51680B4353600F4B9847F3
S1130D000F4B9847FEE7C55804331560CDE702C37F
S1130D10D1E7C046EC0F0000000000200C000020CA
S1130D200C000020300100200000000000ED00E075
S1130D30FC70004100480041004000416D0F00007C
S1130D40AD020000014A024B1A60704740420F0096
S1130D50080000200B0010B50100180000F0F8F89E
S1130D6010BD000002B4714649084900095C4900FD
S1130D708E4402BC7047C04603460B437FD4002216
S1130D8043088B4274D303098B425FD3030A8B421B
S1130D9044D3030B8B4228D3030C8B420DD3FF2285
S1130DA0090212BA030C8B4202D31212090265D053
S1130DB0030B8B4219D300E0090AC30B8B4201D306
S1130DC0CB03C01A5241830B8B4201D38B03C01A4D
S1130DD05241430B8B4201D34B03C01A5241030BC4
S1130DE08B4201D30B03C01A5241C30A8B4201D375
S1130DF0CB02C01A5241830A8B4201D38B02C01A20
S1130E005241430A8B4201D34B02C01A5241030A96
S1130E108B4201D30B02C01A5241CDD2C3098B427B
S1130E2001D3CB01C01A524183098B4201D38B01F8
S1130E30C01A524143098B4201D34B01C01A52419B
S1130E4003098B4201D30B01C01A5241C3088B42E0
S1130E5001D3CB00C01A524183088B4201D38B00CB
S1130E60C01A524143088B4201D34B00C01A52416D
S1130E70411A00D201465241104670475DE0CA0F44
S1130E8000D04942031000D34042534000229C4604
S1130E9003098B422DD3030A8B4212D3FC2289010E
S1130EA012BA030A8B420CD3890192118B4208D3E4
S1130EB0890192118B4204D389013AD0921100E046
S1130EC08909C3098B4201D3CB01C01A524183095A
S1130ED08B4201D38B01C01A524143098B4201D387
S1130EE04B01C01A524103098B4201D30B01C01AB2
S1130EF05241C3088B4201D3CB00C01A524183082C
S1130F008B4201D38B00C01A5241D9D243088B4281
S1130F1001D34B00C01A5241411A00D20146634624
S1130F2052415B10104601D34042002B00D5494288
S1130F30704763465B1000D3404201B5002000F0C7
S1130F4005F802BD0029F8D016E770477047C0467F
S1130F5070B5054C05001300201E04D00A000220C1
S1130F60290000E000BF70BD0000000070B500263D
S1130F700C4D0D4C641BA410A64209D1002600F0B0
S1130F8023F80A4D0A4C641BA410A64205D170BD77
S1130F90B300EB5898470136EEE7B300EB58984797
S1130FA00136F2E7D40F0000D40F0000D40F000084
S1130FB0DC0F0000002310B59A4200D110BDCC5CB8
S1130FC0C4540133F8E70000F8B5C046F8BC08BCC7
S1130FD09E467047B5000000F9030000F8B5C0460E
S10F0FE0F8BC08BC9E4670478D00000061
S10F0FEC000000000100000040420F0063
S9030000FC
