S01100004D696E69436C69636B2E73726563A0
S113000050050020711300006D1300006D130000F3
S113001000000000000000000000000000000000DC
S11300200000000000000000000000006D1300004C
S113003000000000000000006D1300006D130000BC
S11300406D1300006D130000A50900006D1300007E
S1130050910B00006D1300006D1300000000000000
S11300606D130000710B0000810B00000000000004
S1130070000000001D0A00002D0A00006D1300009E
S113008000000000000000006D13000010B5064CD5
S11300902378002B07D1054B002B02D0044800E045
S11300A000BF0123237010BD1400002000000000D5
S11300B0D8170000084B10B5002B03D00749084897
S11300C000E000BF07480368002B00D110BD064BB9
S11300D0002BFBD09847F9E700000000180000202F
S11300E0D8170000D817000000000000F7B50F2251
S11300F0164C070063681B7813406A46D51D2B70A5
S1130100012323802B78DBB2002B06D0012B11D0E6
S1130110380021000E4B9847F7BD20000D4B0830E6
S11301202E78984723002A781533F6B298559B18F1
S11301306360EDE726002000297815367118064B18
S1130140083098472B78F6186660E1E73000002005
S1130150F9060000190900007D0900000123044983
S113016010B50B800B001F334B60024B984710BD3A
S113017030000020210700000023F0B5934211DA7B
S1130180C45CDD00A44600244D1907266746361BCF
S113019037413E0001273E402E55E419082CF4D186
S11301A0DB19EBE7F0BD0000B0B5040008006946B8
S11301B0D300CB1A00AF9D46144B69469847E2B270
S11301C05309D2091ED1124ADB019B180122BD46F4
S11301D0A2409A615A619A615A619A615A619A611C
S11301E05A619A615A619A615A619A615A619A6133
S11301F05A619A615A619A615A619A615A619A6123
S11302005A61B0BD00239B61FFDEC0467901000046
S113021000440041802130B58DB002AA89035160A9
S113022001210023494211810E316944CB770E210B
S11302306944CB77164D0F2128006944137053810C
S1130240D381137453745361137653769376D361C5
S11302501362CB77123393810E490F4B24309847A6
S11302606B466C6AD8710D4B200098471F231840C9
S11302701E3B83400A4A696A13600323CA691A420F
S1130280FCD102232268134323600DB030BDC04665
S1130290300000200008004239050000590B00001E
S11302A000E100E0F8B50E4C0E4E2700250024377F
S11302B0380002220C49B047042349352A78380013
S11302C0134302222B70636A08499A750322B047CC
S11302D008232A78134302222B70636A9A75F8BDA7
S11302E030000020E1060000ED0000005D01000088
S11302F073B50023012601AC0B4D2100102023709F
S1130300A3706670A84721001120A8472100162079
S1130310A84721001720A84721001B202670A847C2
S113032021000A20A84773BD110C0000002337B533
S1130330012201AC064D6370E370210002330E20EC
S1130340A2702370A84721000F20A84737BDC046DC
S113035041130000F7B55D4B98475D4B98475D4BE3
S113036098475D4B98475D4B98475D4B00209847F5
S11303705C4B019098475C4B984703225B49684665
S11303805B4B98475B4C26005C3627005C370422A5
S11303903900574B584898478023584D5B02296AC7
S11303A0012019400B005A1E93413B702B6A5B0CD1
S11303B003407B702A6A920D0240BA702B6ADB0DEF
S11303C00340FB7000290BD14B4B1B78002B07D04B
S11303D020004B4B08308131984780231B05AB61CB
S11303E07378002B0CD1230058335B78002B07D093
S11303F02000434B08308221984780231B05AB61C2
S1130400B378002B0CD1230058339B78002B07D0F2
S113041020003B4B08308321984780231B05AB61A8
S1130420F378002B0CD123005833DB78002B07D052
S11304302000334B08308421984780231B05AB618F
S11304403378002B0CD0230058331B78002B07D1B2
S113045020002B4B08304121984780231B056B61FA
S11304607378002B0CD0230058335B78002B07D112
S11304702000234B08304221984780231B056B61E1
S1130480B378002B0CD0230058339B78002B07D172
S113049020001B4B08304321984780231B056B61C8
S11304A0F378002B0CD023005833DB78002B07D1D2
S11304B02000134B08304421984780231B056B61AF
S11304C0032269460A200F4B98475EE7191400007F
S11304D0FD0E0000D10B0000F10200002D0300000E
S11304E05D11000015020000A5020000AE17000017
S11304F09D170000300000208800002000440041C7
S113050051090000A901000010B5064C0A21083465
S11305102000054B9847054A05492000054B98479C
S113052010BDC046300000200D090000000000206E
S11305301709000029140000F0B5040021600B68BD
S113054085B00E0017001C209B0700D59BE00122FC
S11305500B6817381A40019200D094E008004B4B06
S113056098470125831C9D402B00494A0E30116A8F
S1130570C5B20B4313627B7E02AA137011002800DC
S1130580444B98472800444B98470199434B787E45
S1130590984720683D4B9847414B4249050098478E
S11305A06A46414BAD001279EC50631DDA776A4616
S11305B01279A31DDA776B469B88E3843B7E6372D2
S11305C0102333603B892668E3803B7C23728023BD
S11305D003AC23700123F8696270A370E2703D6A72
S11305E0002803D10100314B3000984702232070CA
S11305F0000C6370C0B221002D4B9847002D04D12C
S113060001213000294B98470500022325702D0C49
S11306106370E8B2264B21009847BB7E8022002BF2
S113062006D1244B7E3A9B7813405A1E9341DA013B
S1130630BB1DD97F7B69002903D1802189048B42AA
S113064002D1802109050A43796830680B43791D7A
S1130650C97F89070B43F91DC97FC9050B430343B0
S113066013433360802300207A895B001343736053
S1130670BB89FA895B00520413437A7C13433A7CA6
S1130680D2031343736205B0F0BDC046FD0A0000F7
S1130690000400406D120000E51100003D0A000056
S11306A0250B00002D07000044010020810A0000F2
S11306B0411300000020004170B5074B04680D0091
S11306C09847002363839D4203D06360034B98479C
S11306D070BD8023DB02F8E7310C0000650C0000DC
S11306E0931C9B00C3185960012393400530C17FBC
S11306F00B43DBB2C377704710B5028D03000520AE
S1130700002A0CD14C68DC620C881C850988D984C9
S1130710190031310870072110001B68997510BD4C
S113072010B5014B984710BDF9060000F7B5754B9D
S11307308000C458611DA31DDA7FCE7F2568164052
S11307400222297E11425ED0E38C218D8B4240D05F
S1130750230030331B78DBB2002B3AD12100313136
S11307600B70E3842385164202D023692000984746
S113077043236A8B1A4208D02300102231331A70A3
S1130780B30602D5236A20009847637A5E4F00219E
S1130790002B10D1082221006B8B303113402BD059
S11307A001230B70730702D5636920009847E18C1D
S11307B089B2002925D12000B84723681A7ED207C0
S11307C001D501221A76022201211A762000B847A7
S11307D0F7BDE38C9942CBD0230030331B78DBB2D6
S11307E0012BC5D12100002231310A70E284228517
S11307F01E42BDD0E368B9E70B701642D7D0A36997
S1130800D3E70121D7E70121287E084229D02976A0
S113081004312975D97F490703D4DB7F1B0700D432
S11308202A752200313213781E2BD1D01378102B65
S1130830CED000231370E3842385B30708D52300A7
S113084030331B78002B03D1236920009847BFE77E
S1130850F307BDD5230030331B78012BB8D1E368EF
S1130860F3E704222B7E1342B2D02300218D3033D0
S1130870002908D0187801282CD1E08C814229D293
S1130880698B114226D000272785E7841978230035
S1130890C9B2313301931C4BB9420ED120009847A1
S11308A080226B68920213436B601E23019A1370BB
S11308B0F30600D48CE7E369C7E7390020009847C2
S11308C080226B68920213436B60019B1F700423A8
S11308D02B757DE7E28C002A00D179E71A78283558
S11308E0E36A002A08D15A1CE2622A78D2B21A704A
S11308F0238D013B23856BE75A1CE2621B78DBB234
S11309002B70F5E744010020B90600000023817232
S1130910C372037370477047037BC27A934202DB4E
S1130920981AC0B27047807A1818801AF9E7000044
S113093010B50400007BA17A044B01309847E07A9B
S1130940081A41424841C0B210BDC0462D170000EC
S113095070B5084B04000D0098470023984207D156
S1130960207B054B2554A17A01309847012321733C
S1130970180070BD310900002D17000010B5C37AAE
S1130980027B040000209A4208D0E35C0B70E07AFA
S1130990A17A0130024B98470120E17210BDC04694
S11309A02D170000012210B5034B9A71034B1B68ED
S11309B0002B00D0984710BD0010004038010020E3
S11309C070B50126144B8000C4582368227E657ECE
S11309D09B7B15401D40354204D0A36820009847F6
S11309E023689E730226354204D0E36820009847AA
S11309F023689E731026354204D02369200098474B
S1130A0023689E732026354204D0636920009847EA
S1130A1023689E7370BDC0463C01002010B50020C1
S1130A20014B984710BDC046C109000010B5012014
S1130A30014B984710BDC046C109000037B50D4CA5
S1130A4005002378002B01D000290CD001A90D202A
S1130A50094B0D7098470D20084B9847012300203F
S1130A60657023703EBD63780800AB42FAD01D2048
S1130A70F8E7C046CC0000206D120000E51100002C
S1130A80144B00B5984204D0134B98420FD0002069
S1130A9008E00020032905D8080000F0CDFC160268
S1130AA004060E4800BD0E48FCE70E48FAE7002095
S1130AB00329F7D8080000F0BFFC0A0204060A481C
S1130AC0F0E70A48EEE70A48ECE70A48EAE70A488A
S1130AD0E8E7C04600080042000C0042030005009D
S1130AE0030008000300090002001F0002001800B0
S1130AF0020019000300040002001E00064B984285
S1130B0007D0064A0023904201D10133DBB218001A
S1130B1070470023FAE7C04600080042000C004278
S1130B207047000070B5084C084B2278002A07D1A2
S1130B30074D084E2A606A6001321E605E602270B2
S1130B408000195070BDC046CE000020D0000020A7
S1130B5044010020210B0000092313B501AC2370CC
S1130B6001336370014B9847205616BDFD0A0000FF
S1130B7010B5024B00201B68984710BDD000002020
S1130B8010B5024B01205B68984710BDD0000020CF
S1130B90002370B501250B4C237023780F2B00D94B
S1130BA070BD29009940084A1069084206D01161B5
S1130BB0064A9B009B58002B00D0984723780133AA
S1130BC02370EAE74C01002000180040F8000020E0
S1130BD070B5094B00209847FA21084C890005009C
S1130BE0A047074B074918602800A0470522064B79
S1130BF01860064B1A6070BD5D1100004D140000B2
S1130C000400002040420F000800002010E000E033
S1130C1007B5802201AB1A700A785A704A789A7024
S1130C208A781900DA70014B984707BD4113000018
S1130C30094B196800290BD1EFF31080074A0028EB
S1130C4005D172B6BFF35F8F054908700121117099
S1130C501A6801321A607047D8000020DC000020B6
S1130C600C000020084B1A68013A1A601B68002B1C
S1130C7009D1064B1B78002B05D00122044B1A70B6
S1130C80BFF35F8F62B67047D8000020DC000020FD
S1130C900C00002010230249CA681A42FCD0704795
S1130CA0000800400222F8B50026094D094C2B68C3
S1130CB0094F13432B60A284B847AB68E3626B68A7
S1130CC0A362A684B8472B6830009BB2A384F8BD06
S1130CD0E000002000080040950C000070B50828D2
S1130CE006D800F0A9FB0805053030120B152800C2
S1130CF00024200070BD164B1C69FAE7154B164CF6
S1130D001B6A9B059B0FDC40F3E7114B5C69F0E722
S1130D100F4D00242B689B07EBD5104B98472422DA
S1130D202B681340042B11D120000D4B9847AC685D
S1130D30A4B24443DDE70B4B00241B785B07D8D5F2
S1130D40034BDC68D5E780242402D2E7064CD0E7C5
S1130D50E00000200008004000127A00950C00001A
S1130D608912000050080040006CDC0270B58478E1
S1130D700278457801204026054020408024084917
S1130D80AD010B6AC001B3432B43A34303430320C8
S1130D90024004481202034013430B6270BDC04674
S1130DA000080040FFFCFFFFF7B5184F4678BB6909
S1130DB0190003780193042342790479C5780092D9
S1130DC0012299430823807816401040800008438C
S1130DD09843F60006431540A801350038339D4377
S1130DE005431440E30180202C0084431C43072363
S1130DF001990B4006491B0221401943009B1A40EC
S1130E001303044A0A401A43BA61F7BD00080040BC
S1130E10FFF8FFFFFFEFFFFF10B5027A4389920648
S1130E209B059B0D120C1A43174B5A60C1798279AA
S1130E3084880A43418821430A4341780478C901DC
S1130E400A431A60042C0DD1027B018A92060A43DC
S1130E50C1890E48090401400A439A601A68144380
S1130E601C6010BD202CFCD1027B018A92060A432F
S1130E70C1890648090401400A439A601968044A72
S1130E800A431A60EDE7C046E00000200000FF03BB
S1130E902404000010B5082806D800F0CDFA140583
S1130EA0050C0E1A07202300172010BD0223104A38
S1130EB0116A0B4313620020F7E702230C4A91697D
S1130EC00B439361F7E70223094A118A0B43138208
S1130ED0F1E70223064A918A0B439382EBE7054B21
S1130EE09847E2E70223044A11780B431370E2E7C0
S1130EF000080040A50C000044080040C2231E2244
S1130F00F0B50025424EDB004249B3604B688DB01A
S1130F1093431C3A134307AC4B602270E8B22100A0
S1130F203D4B01359847182DF8D13C4FB2693B68C9
S1130F303B49DB045B0E0A401B041343B3610123EA
S1130F40002502A88370037105330370354BC57007
S1130F50457145709847344B042098473F2363817B
S1130F603B3B6580A580A571E571237065703B6886
S1130F709B0E3F2B00D1203B2372B723DB0023823F
S1130F800723237338330125E38120000024274BF2
S1130F90984701A8264B4470857004709847224BEB
S1130FA006209847234B9847042304AF39003B702D
S1130FB02800214B7D607C703C727C72984728002D
S1130FC01E4B984739002000134B3D709847200072
S1130FD01B4B98471B4B9847D022F3681340D02BE8
S1130FE0FBD10024184B39001C725C729C72DC72B9
S1130FF001237B6006333B7020000F4B7C703C72F6
S11310007C72984720000D4B98470DB0F0BDC04648
S113101000080040004000416D1200002460800080
S1131020FFFF80FFA90D0000950E0000190E0000BF
S11310306D0D000059100000791000001D11000012
S1131040E5110000A50C000000040040014B587895
S1131050C0097047000C00400823054A91690B43FE
S113106093610123034A137011781942FCD170472C
S113107000040040000C0040F8B50C784B782402C2
S1131080060005000443002B02D08023DB021C432E
S11310904B7A002B02D080231B031C434B68012B8B
S11310A012D95D1E1D400222002D06D01D02802390
S11310B035439B0207E0013552009A42FBD380235B
S11310C02D0235435B031C430B7A002B02D0802393
S11310D09B031C430C4FB8470028FBD10B4B98478C
S11310E00B4B1E70B8470028FCD10A4B9D601D00B5
S11310F0B8470028FCD180226B68520213401C437D
S11311006C60054B9847F8BD4D100000310C000091
S1131110080C0040000C0040650C000070B5050090
S1131120094CA0470028FBD1084B9847084B1D7079
S1131130A0470028FCD18023064A5B0251680B4378
S11311405360054B984770BD4D100000310C0000F2
S1131150040C0040000C0040650C0000F7B50700CB
S1131160184EB0470028FBD1174B9847174B1F70F8
S11311700193B0470028FCD1154D164B6868C00494
S1131180C00E98470400019B1F706B68DB02DB0FE5
S11311900193114B1F70B0470028FCD1AD680F4B71
S11311A09847019B2D022D0C002B08D1012D04D949
S11311B0200029000A4B984704002000FEBD013599
S11311C0EC40FAE74D100000310C0000040C004024
S11311D0000C0040DD0C0000080C0040650C000011
S11311E04D14000010B50400064B9847064B074AFF
S11311F01C7080235188DB010B435380044B9847B8
S113120010BDC046310C0000020C0040000C004030
S1131210650C000010B504000E4B98470E4B0F4AA6
S11312201C700F4B0F4C5888598800051140598089
S11312305988000F2140598011008022D2015C8816
S11312401442FCD15A8800020A4002435A80064BD9
S1131250984710BD310C0000020C0040FFF0FFFF66
S1131260000C0040FFBFFFFF650C000010B50C78B8
S1131270034B240204439847024BA4B25C8010BD84
S113128015120000000C004010B50400064B9847EE
S1131290064B1C70064B5C88064B2405240F9847AC
S11312A02000054B984710BD310C0000020C004093
S11312B0000C0040650C00005D110000D37830B5CF
S11312C0002B35D11478802C03D0802324065B02B4
S11312D0234302255478AC4306D19478002C24D1BE
S11312E08024A402234341605478013C012C01D89A
S11312F0124C2340A0248DB2E4052C431C43846289
S1131300D0240D0C24062C431C438462D478002C76
S11313100AD15B0303D59378012B0CD181615378F7
S1131320013B012B00D8816030BDC024E402D9E721
S113133041600023DEE74161F1E7C046FFFFFBFFA8
S113134010B503000A004409C1090020814202D1FA
S11313500449E00140181F210B401E399940024BFB
S1131360984710BD00440041BD120000FEE7000094
S11313701D481E4970B5884204D000231C4CCA186D
S1131380A2422AD300211B4B1B4A934229D3FF219B
S11313901A4B1B4A8B43936002223020194B5A622A
S11313A0194B997B81430800202101430C20997338
S11313B0997B814308000821014303209973997B99
S11313C081430A439A738023104A51680B43536044
S11313D00F4B98470F4B9847FEE7C55804331560E9
S11313E0CDE702C3D1E7C046D817000000000020B3
S11313F01400002014000020500100200000000010
S113140000ED00E0FC700041004800410040004154
S11314105517000055030000014A024B1A6070473B
S113142040420F00100000200B0010B5010018000E
S113143000F082F910BD000002B471464908490069
S1131440095C49008E4402BC7047C0460022430830
S11314508B4274D303098B425FD3030A8B4244D378
S1131460030B8B4228D3030C8B420DD3FF220902BA
S113147012BA030C8B4202D31212090265D0030B79
S11314808B4219D300E0090AC30B8B4201D3CB036F
S1131490C01A5241830B8B4201D38B03C01A5241B1
S11314A0430B8B4201D34B03C01A5241030B8B42B3
S11314B001D30B03C01A5241C30A8B4201D3CB029E
S11314C0C01A5241830A8B4201D38B02C01A524183
S11314D0430A8B4201D34B02C01A5241030A8B4286
S11314E001D30B02C01A5241CDD2C3098B4201D39E
S11314F0CB01C01A524183098B4201D38B01C01A1C
S1131500524143098B4201D34B01C01A5241030992
S11315108B4201D30B01C01A5241C3088B4201D341
S1131520CB00C01A524183088B4201D38B00C01AEE
S1131530524143088B4201D34B00C01A5241411A15
S113154000D20146524110467047FFE701B5002022
S113155000F0F0F802BDC0460029F7D076E77047E6
S113156003460B437FD4002243088B4274D3030900
S11315708B425FD3030A8B4244D3030B8B4228D3A1
S1131580030C8B420DD3FF22090212BA030C8B42C7
S113159002D31212090265D0030B8B4219D300E067
S11315A0090AC30B8B4201D3CB03C01A5241830BEC
S11315B08B4201D38B03C01A5241430B8B4201D39C
S11315C04B03C01A5241030B8B4201D30B03C01AC5
S11315D05241C30A8B4201D3CB02C01A5241830A3F
S11315E08B4201D38B02C01A5241430A8B4201D36E
S11315F04B02C01A5241030A8B4201D30B02C01A98
S11316005241CDD2C3098B4201D3CB01C01A5241FE
S113161083098B4201D38B01C01A524143098B4287
S113162001D34B01C01A524103098B4201D30B0170
S1131630C01A5241C3088B4201D3CB00C01A524195
S113164083088B4201D38B00C01A524143088B425A
S113165001D34B00C01A5241411A00D201465241F3
S1131660104670475DE0CA0F00D04942031000D312
S11316704042534000229C4603098B422DD3030A67
S11316808B4212D3FC22890112BA030A8B420CD377
S1131690890192118B4208D3890192118B4204D3A0
S11316A089013AD0921100E08909C3098B4201D320
S11316B0CB01C01A524183098B4201D38B01C01A5A
S11316C0524143098B4201D34B01C01A52410309D1
S11316D08B4201D30B01C01A5241C3088B4201D380
S11316E0CB00C01A524183088B4201D38B00C01A2D
S11316F05241D9D243088B4201D34B00C01A524104
S1131700411A00D20146634652415B10104601D390
S11317104042002B00D54942704763465B1000D31A
S1131720404201B5002000F005F802BD0029F8D0C0
S113173016E770477047C04670B5054C05001300A6
S1131740201E04D00A000220290000E000BF70BD62
S11317500000000070B500260C4D0D4C641BA41055
S1131760A64209D1002600F025F80A4D0A4C641B54
S1131770A410A64205D170BDB300EB5898470136BA
S1131780EEE7B300EB5898470136F2E7C0170000C4
S1131790C0170000C0170000C8170000002310B5D0
S11317A09A4200D110BDCC5CC4540133F8E700FF69
S11317B00F000000F8B5C046F8BC08BC9E46704750
S11317C0B500000009050000F8B5C046F8BC08BC27
S10B17D09E4670478D000000E5
S11317D800000000401F0000080000000100000095
S10717E840420F0068
S9030000FC
